:020000040800F2
:10000000C0EE002045010008F52D0008412A000837
:10001000CD2D0008490A0008957200080000000074
:10002000000000000000000000000000F55500087E
:100030002315000800000000E5340008B15A00084C
:100040005F0100085F0100085F0100085F01000810
:100050005F0100085F0100085F0100085F01000800
:100060007D1A00085F0100085F0100085F010008B9
:100070005F0100085F0100085F0100085F010008E0
:100080005F0100085F0100085F0100085F010008D0
:100090005F0100085F0100085F010008A11A000865
:1000A0005F0100085F0100085F0100085F010008B0
:1000B000655B0008815C00085F0100085F010008C3
:1000C0005F0100085F0100085F0100085F01000890
:1000D0005F010008796F00085F01000829700008BF
:1000E0005F0100085F0100085F0100085F01000870
:1000F0005F0100085F0100085F0100085F01000860
:100100005F010008D54300085F0100085F01000897
:100110005F0100085F0100085D5D0008A95E00083E
:100120005F0100085F0100085F0100085F0100082F
:10013000DFF80CD000F000FB0048004739870008CA
:10014000C0EE00200648804706480047FEE7FEE76D
:10015000FEE7FEE7FEE7FEE7FEE7FEE7FEE7FEE777
:10016000F15A00083101000840EA01039B0703D05F
:1001700009E008C9121F08C0042AFAD203E011F8E6
:10018000013B00F8013B521EF9D27047D2B201E0A8
:1001900000F8012B491EFBD270470022F6E710B58C
:1001A00013460A4604461946FFF7F0FF204610BDE5
:1001B00010B5044604E00B7800F8013B03B1491C7C
:1001C000521EF8D2204610BD421C10F8011B002917
:1001D000FBD1801A70472DE9FE4F804681EA03006B
:1001E000C00F0C46009021F0004123F00045B8EB11
:1001F0000200A94105D24046214690461C460B46C6
:10020000024623F00040104304D14046214603B08B
:10021000BDE8F08F270DC7F30A00C3F30A5102901F
:10022000401A0190402866DAC3F3130040F4801BA3
:100230000098924620B10023D2EB030A63EB0B0B2C
:1002400001985946C0F14002504600F0D8F80646E1
:100250000D4650465946019A00F0F0F810EB0800A0
:100260006141002487EA115284EAE7731A433BD0C4
:10027000009A3AB3019A012A4FEA075210DC001B98
:1002800061EB02014FF0004202EA0752CDE9004261
:10029000001C41F5801132462B4600F0EEF8B6E71F
:1002A000001B61EB0201001C41F5801300185B414B
:1002B0002018A2F5001747EB030140EAD570B619E4
:1002C0006D4111E06D084FEA360645EAC0754FEA08
:1002D0000752001B61EB0201001C41F58011490827
:1002E0004FEA30000019514132462B4603B0BDE8B9
:1002F000F04F00F0B5B80098012240000023D0EB89
:10030000020263EBE073009821464FEAE074B8EB19
:10031000000061EB0401E9E783F000435BE781F053
:10032000004158E70EB540F2334102910021CDE97A
:1003300000110A460B4600F0A0F803B000BDC1F35F
:100340000A5210B5C1F3130140F2FF3341F480119A
:100350009A4201DA002010BD40F233439A42A2F2E1
:10036000334203DC524200F059F810BD904010BDFA
:1003700030B50B46014600202022012409E021FA75
:1003800002F59D4205D303FA02F5491B04FA02F572
:100390002844151EA2F10102F1DC30BD2DE9F05F09
:1003A0000546002092469B468846064681464024E4
:1003B0001BE0284641464746224600F02FF85346A8
:1003C0005A46C01A914110D311461846224600F0F1
:1003D00016F82D1A67EB01084F462246012000212E
:1003E00000F00DF817EB00094E41201EA4F10104A6
:1003F000DFDC484631462A464346BDE8F09F202AC6
:1004000004DB203A00FA02F1002070479140C2F16B
:10041000200320FA03F3194390407047202A04DB9D
:10042000203A21FA02F00021704721FA02F3D0406D
:10043000C2F120029140084319467047202A06DB8A
:10044000CB17203A41FA02F043EAE07306E041FAA2
:1004500002F3D040C2F12002914008431946704790
:1004600010B5002B08DA401C41F1000192185B41E5
:100470001A4301D120F0010010BD2DE9F04D924644
:100480009B4611B1B1FA81F202E0B0FA80F220325B
:100490009046FFF7B4FF04460F4640EA0A0041EADF
:1004A0000B0153465A46084303D120463946BDE85E
:1004B000F08D114653EA010015D0C8F140025046B4
:1004C000FFF7ACFF05460E46504659464246FFF739
:1004D00096FF084301D0012000E00020054346EAD2
:1004E000E0762C4337430A984FEA4453A0EB0800C8
:1004F0004FEAD4240A304FF0000244EA47544FEA4E
:10050000D72502D500200146D1E701051019694120
:10051000DDE9084500196941BDE8F04DA0E72DE986
:10052000FE4F81EA030404F0004421F000410094EE
:100530004FF0000B23F0004350EA010402D052EACE
:10054000030404D10020014603B0BDE8F08FC3F3DB
:100550000A54C1F30A552C44A4F2F3340194A0FBCD
:100560000254C1F3130141F48011C3F3130343F4A4
:10057000801301FB024400FB034E840A970A44EAFD
:10058000815447EA8357A4FB076802958D0A05FB4F
:1005900007854FEA932C04FB0C542705029D4FEA74
:1005A000065847EA1637B5EB08056EEB070C870EC1
:1005B000920E47EA811742EA8312A7FB0201B6EBCB
:1005C0000B0164EB00042B0D43EA0C335E1844EB83
:1005D0001C50DA465146E7FB0201C5F313044FEA0B
:1005E0000B3343EA14534FEA0432019C43EA0603F7
:1005F000A4F10C040294009CCDE900B4FFF73DFF88
:10060000A2E72DE9F04D81EA030404F0004B21F04C
:10061000004514464FF0000A23F0004150EA05025D
:1006200020D054EA01021DD0C5F30A570246C5F393
:100630001303C1F31300C1F30A5640F4801543F4C9
:100640008013A7EB0608101BD64608F2FD3873EBA3
:10065000050002D308F1010801E092185B41B8F1EE
:10066000000F03DA00200146BDE8F08D00204FF4B2
:100670008011064684460EE0171B73EB050705D371
:10068000121B63EB050306434CEA010C49084FEAD1
:10069000300092185B4150EA0107EDD152EA0300A5
:1006A00012D082EA040083EA0501084303D1002244
:1006B0004FF0004308E0101BAB4102D2012200239F
:1006C00002E06FF0010253101AEB06004CEB0851E8
:1006D00010EB0A0041EB0B01BDE8F04DFFF7C0BE87
:1006E000C1F30A52C1F3130140F2FF3341F4801108
:1006F0009A4202DA00200146704740F233439A42A0
:10070000A2F2334202DC5242FFF788BEFFF777BE07
:1007100030B5002904DB4FF00044404264EB010196
:10072000002B04DB4FF00044524264EB0303994278
:1007300008BF904230BD0000064C074D06E0E0685F
:1007400040F0010394E8070098471034AC42F6D318
:10075000FFF7F2FC10B2010830B2010870B501EBEE
:10076000020410F8015B15F0070301D110F8013BFA
:100770002A1106D110F8012B03E010F8016B01F8E3
:10078000016B5B1EF9D12B0705D40023521E0FD439
:1007900001F8013BFAE710F8013B02F10202A1EB7C
:1007A000030303E013F8015B01F8015B521EF9D566
:1007B000A142D6D3002070BD70B590B001214FF496
:1007C000047003F025FA0121084603F009FA4FF4FA
:1007D000404003F0FBF91F4E304600F013FE1E4868
:1007E00000901E4801A90024022531C18020CDE9D6
:1007F00004404000069080000790202008900002EE
:10080000CDE909046946304600F06EFE012130460C
:1008100000F0ECFD01208DF830008DF831000B94D4
:100820004FF46020CDE90D040B4C8DF83C504C3C4E
:100830000BA9204600F028F8072301220E212046AC
:1008400000F046F8072302220F21204600F040F86E
:1008500010B070BD080002404C240140760000201A
:100860000029816802D041F0010101E021F001017D
:10087000816070470029816802D041F4807101E0F5
:1008800021F480718160704710B542680E4B0C797D
:100890001A400B6842EA04221343436083680B4A00
:1008A0001340D1E9024222434C7943EA44031A43FC
:1008B0008260C26A097C22F47002491EC9B242EA0F
:1008C0000151C16210BD0000FFFEF0FFFDF7F1FF16
:1008D00070B5072409290AD9C568A1F10A0606EBF3
:1008E0004606B440A543B3401D43C56007E0056913
:1008F00001EB4106B440A543B3401D4305611F23EE
:10090000072A09D2446B521E02EB820293409C4399
:1009100091400C43446370BD0D2A09D2046BD21F71
:1009200002EB820293409C4391400C43046370BDF0
:10093000C46A0D3A02EB820293409C4391400C43FF
:10094000C46270BD0029816802D041F4A00101E0B9
:1009500021F4A0018160704708B502490844009065
:10096000008808BD006C004008B5024A10440090A1
:10097000016008BD006C0040084A082111600A228D
:100980000749012803D0022803D0032803D00A8096
:100990007047282000E05020088070471414014060
:1009A0001C00002000B5C0B2FFF7E6FF002000BD2C
:1009B00038B500231C46009311E0035D0D5DAB428A
:1009C0000CD0009A2346521C0092095D0091025DF2
:1009D000194609A006F04EFC601C38BD641C944208
:1009E00003D2009B002BE8D004E0009810B90FA0C0
:1009F00006F040FC002038BD0D0A204552524F52EF
:100A00003A54784275666665725B25645D3D307860
:100A100025782D2D2D52784275666665725B2564AA
:100A20005D3D30782578200D0A0000000D0A205326
:100A300052414D20577269746520262052656164C9
:100A4000204F4B200D0A0000FEE700002DE9F84F73
:100A50005648554E182201784FF0000941B3B0F8BE
:100A600005700A21735C01F10101002BFAD100919C
:100A700041784FF00C034FEAC101B1FBF3F4DFF80A
:100A80003081DFF830B14146A8F80040C478A8F8BA
:100A90000440A8F80630A8F80820A8F80A20B0F802
:100AA00005504FF000049DB3A8F8029082463FE045
:100AB000A0F80590C27105210789D3E7705D30B1B8
:100AC000012813D00020DC46B8F80A1017E0B8F867
:100AD0000A100BEB04002022FFF758FBB8F80A00BD
:100AE00004440BF80490641C6D1C1CE0AD1C1FE05A
:100AF000814203DD0CF80430641C401C6D1CAA42CA
:100B000002DD735D002BF3D16D1CC3B2202205E022
:100B10001BE000BF0CF80420641C401C8142F9DC7F
:100B20000BF80430641CB8F80200401CA8F802005E
:100B3000BAF80820AA42C1DCB8F80A20B8F80210B6
:100B4000521C5143C8F80C1003E0A1F80290C8F8F9
:100B50000C904FF400514D4623460020894607E093
:100B600000990144725C7AB10BF80420641C401CAB
:100B7000B84201DA4C45F3D3D8F80C10E21A11440C
:100B8000C8F80C10BDE8F88F491C002204E000BF33
:100B90000BF80450641C521C16F801C0944501DD8A
:100BA0004C45F5D3801CE3E7006C0040006C00402E
:100BB000A0BE0020B0BE002010B5064C6079A1791F
:100BC000884201D1002010BD07F07AFD0248A179CA
:100BD000405C10BD10000020C4AE002010B501F034
:100BE00055FE114C2078C10714D00020FFF7DAFE23
:100BF00000F04AF80D4804221146D0F8A80300F08E
:100C000091FC0B49087810F0050F02D040F08000ED
:100C1000087010BDC006FCD500F036F8207820F032
:100C20001000207010BD000056020020A2940008A1
:100C3000C03E0020124B10B5187820F0020018704A
:100C400004F07EFF0F49002298B11878C40705D040
:100C500020F0080040F010000A60187000F0FE005C
:100C600018700968B1F1805F02D940F00400187073
:100C700010BD0A60187820F0100040F00100F6E77F
:100C800054020020840100207047000070B53A4CE7
:100C900005460020394A2070516B11F0450FFBD0FA
:100CA000480703D503202070042003E0C80704D0C0
:100CB0000120207003F02EFB5CE003F06BFBA842E8
:100CC00002D01020207070BD40F2FF5003F022FBD4
:100CD000002003F077FB2A4908424BD0002801DAB4
:100CE0001C2070BD410001D5092070BD810001D5D7
:100CF0000A2070BDC10001D50B2070BD010101D5D6
:100D00000C2070BD410101D50D2070BDC10101D580
:100D10000E2070BD010201D50F2070BD410201D52A
:100D2000102070BD810201D5112070BDC10201D516
:100D3000122070BD010301D5132070BD410301D500
:100D4000142070BD810301D5152070BDC10301D5EC
:100D5000162070BD010401D5172070BD410401D5D6
:100D6000182070BD810401D5192070BD000701D580
:100D70001A2070BD207870BDDC000020008001408A
:100D800008E0FFFD10B50C4C00200C492070486BAA
:100D900010F0450FFBD0410703D50320207004203D
:100DA00003E0C00705D00120207003F0B3FA2078DB
:100DB00010BD40F2FF50F8E7DC0000200080014049
:100DC00070B51D4C0646002020701C480D46426B35
:100DD00012F0450FFBD0500703D5032020700420EC
:100DE00003E0D00704D00120207003F093FA20E044
:100DF00003F0D0FAB04202D01020207070BD40F253
:100E0000FF5003F087FA002003F0DCFA10F4604F83
:100E100003D0810405D5132070BD4FEA104028800F
:100E200007E0410401D5102070BD000401D50F205A
:100E300070BD207870BD0000DC0000200080014003
:100E400070B50F4C00200F4B4FF480322070596B5F
:100E500011F0450F09D00AB14A0709D503202070C7
:100E6000042009E0A2F10102F1E7002AFAD1F5E736
:100E7000490604D52070402003F04CFA207870BD5C
:100E8000DC0000200080014013783BB1037843EA86
:100E900011110170002010700120704701700120B5
:100EA00010700020704732B1027842EA11120270CD
:100EB0000901417070470170704700002DE9F84F3B
:100EC0006D4EDFF8B8A1002730789AF80010694D10
:100ED000DFF8AC81DFF8AC9108433C461FD198F8AD
:100EE000001099F80000814219D267480178491C26
:100EF000C9B20170652900D3047000786349C0EB62
:100F0000C00000EB8000084441F67751405C04F0DB
:100F100091FB98F80010491C88F80010347098F87C
:100F20000000009099F800B058451FD83078182874
:100F300006D200F0C1F83078401C3070012715E06F
:100F400030214C48FFF729F99AF80010042903D200
:100F5000491C8AF8001002E08AF800403470009AB8
:100F60005A4503D189F8004088F800404849DFF825
:100F700024B1DFF824E10888BBF8003050EA03020E
:100F800041D0DFF818C1464FDFF81891DCF8002097
:100F90003E68D9F800805643A6EB0806DFF80881C2
:100FA000D8F800804644F0B1521C401ECCF8002016
:100FB00008803E484FEA09080480CEF80040CEF889
:100FC0000440CEF808400024D8F8000084420ED334
:100FD00039680844A0420AD9354928780968895DEA
:100FE0000843E1B205E03B60ABF80040E1E7E1B265
:100FF000287804F027FC6D1C641C761C302CE3DB85
:1010000004F03AFC32E029480480CEF80040CEF8E3
:101010000440CEF808404FB10027F9B2287804F018
:1010200011FC6D1C7F1C302FF7DB07E00025E9B2B7
:10103000002004F007FC6D1C302DF8DB04F01CFCD4
:1010400098F8002099F800309A420FD332786AB9A4
:101050009AF8002052B9114888F8004004601548F9
:1010600089F80040417841F010014170BDE8F84F27
:1010700004F022BC10BD0020700100206A01002095
:101080006B0100205D020020680100200013002099
:101090004E02002050020020B0DE00206C01002033
:1010A00074020020780200207002002080010020DD
:1010B0006C020020540200202DE9FE4F00208DF824
:1010C000000030216B48FFF768F86B4E3078182825
:1010D0007AD2DFF8A8910024254699F8000000286C
:1010E00072DD674FDFF89CA1DFF88881DFF898B1E7
:1010F00057F824008100317868D501EB41010B18C5
:10110000C3F3150001A903F063F8580042D59DF818
:101110000410E41C08EB05003AF811309DF800209B
:10112000190AFFF7C0FE6D1C302D4DDAD9B24346C7
:1011300008EB05009DF80020FFF7B5FE6D1C302D73
:1011400042DA9DF805109DF800203AF8110002904F
:10115000010A5819FFF7A7FE6D1C302D34DA0298EA
:101160009DF80020C1B25819FFF79DFE6D1C302D6F
:101170007EDA9DF806109DF800203AF811000290E2
:10118000010A5819FFF78FFE6D1C302D70DA029896
:10119000C1B246E0641C9DF80410434608EB05000C
:1011A0009DF80020FFF77FFE6D1C302D60DA9DF862
:1011B000051058199DF80020FFF775FE6D1C302DA5
:1011C00056DA9DF806102CE052E0FFE7C1EBC101B2
:1011D00000EB811041002BD520F07F40641C1BF8F0
:1011E0000020401C3AF812300290190A08EB050062
:1011F0009DF80020FFF757FE6D1C302D38DAD9B26C
:10120000434608EB05009DF80020FFF74CFE6D1CDF
:10121000302D2DDA02991BF801103AF811000290D6
:10122000010A58199DF80020FFF73DFE6D1C17E0DC
:1012300020F07F4043461BF80010401C029008EB52
:1012400005009DF80020FFF72EFE6D1C302D0FDAF3
:10125000029958196A461BF80110FFF715FE05445C
:1012600099F80000641C844202DA302DFFF640AF8A
:10127000BDE8FE8F10BD0020700100207E0100201F
:1012800090BC0020DE720108787E01082DE9F05F35
:101290002D493E20DFF8B4C02D4F0860BCF8000097
:1012A0003C88DFF8B0A050EA04014FF0000541D0BF
:1012B000294BDFF8A890DAF800101E68D9F80080F2
:1012C0004E43A6EB0806DFF89880D8F80080464425
:1012D000E046D8B1491C401ECAF80010A8F800002A
:1012E000204800249B4605801F48056045608560B6
:1012F000D9F8000084420CD3DBF800100844A04267
:1013000007D91A48E1B20068805D04E01C603D80A6
:10131000E6E7E1B2002004F095FA641C761C302C5C
:10132000E6DB04F0A9FA04F0C7FAB8F8000039883F
:10133000084306D10E48CAF80050417841F0100128
:101340004170BDE8F09F0000680200204E020020BE
:10135000500200206C01002074020020780200205E
:101360007002002080010020B0DE00206C0200200E
:101370005402002038B5164C4FF4FA626946A5783D
:10138000012005F0A7FC00281CD0207808B100F04F
:1013900041FC9DF80010B1B1302914D0412912D080
:1013A000012912D0312910D042290ED0022901D0B2
:1013B000322907D18020A070C2B20021E01C02F0C7
:1013C000BBFCA57038BD2020F5E74020F3E7000006
:1013D0007BBE0020C10002D5024908607047024967
:1013E0004860704704040240000002400029016880
:1013F00002D041F0010102E04FF6FE72114001609F
:101400007047000001684FF6FE7211400160002134
:10141000016041608160C1603149314A08399042C0
:1014200003D1486840F00F0006E02D4A1432904284
:1014300004D1486840F0F00048607047284A2832DC
:10144000904203D1486840F47060F5E7244A3C328A
:10145000904203D1486840F47040EDE7204A503292
:10146000904203D1486840F47020E5E71C4A64329A
:10147000904203D1486840F47000DDE7184A7832A2
:10148000904203D1486840F07060D5E7154A111FBB
:10149000904203D1086840F00F0006E0114A143270
:1014A000904204D1086840F0F000086070470D4A8F
:1014B0002832904203D1086840F47060F5E7094A89
:1014C0003C32904203D1086840F47040EDE7054A91
:1014D00050329042EAD1086840F47020E5E70000FD
:1014E000080002400804024030B5036847F6F07275
:1014F00093430C6A8A682243D1E904452C43224372
:101500008C692243CC6922434C6A22438C6A224371
:101510001A430260CA6842600A6882604968C16012
:1015200030BD70477047000010B54FF4801116A011
:1015300007F0B8FE21A007F0CDFE26A007F0CAFEF6
:1015400027A007F0C7FE2F4C2F48214607F0AAFE20
:1015500021462EA007F0A6FE21463CA007F0A2FEE1
:10156000102146A007F09EFE53A007F0B3FE2146CF
:1015700056A007F097FE214661A007F093FEBDE854
:1015800010406FA007F0A6BE0A54657374207365FF
:101590007269616C20666C617368205353543235F4
:1015A0005646303136422853495A453A256420423E
:1015B00079746573292E200A00000000203F202D39
:1015C0002048656C7020666F7220466C6173682ECF
:1015D000200A00002071202D20517569742E0A0008
:1015E000206669202D20496E697469616C697A658D
:1015F0002053504920666F7220466C6173682E0A32
:1016000000000000FFFF0F008098000820666320A4
:101610003C616464723A25643E203C737472696E66
:10162000673A3132303E202D20436865636B207469
:1016300068652064617461206F66207772697465E3
:101640002062792066572E200A0000002066722052
:101650003C616464723A25643E203C6C656E3E20B9
:101660002D207265616420646174612066726F6D03
:1016700020466C6173682E0A000000002066652019
:101680003C736563463A25643E203C736563543E73
:10169000202D2045726173652073656374696F6ED8
:1016A00073202066726F6D207365634620746F200F
:1016B000736563542E200A00206645202D20457254
:1016C00061736520636869702E0A000020665720E8
:1016D0003C616464723A25643E203C6C656E3E2039
:1016E0003C76616C3E202D207772697465206461C0
:1016F000746120746F20466C6173682E200A0000AC
:10170000206643203C616464723A25643E203C6C50
:10171000656E3E203C76616C3E202D2043686563FB
:101720006B207468652064617461206F6620777235
:101730006974652062792066772E200A0000000017
:1017400020666C202D204C6F6164204368696E65B3
:10175000736520696E746F20666C6173682E0A0071
:1017600010B519A007F0B6FD1BA007F0B3FD274880
:1017700007F0B0FD26A007F0ADFD2DA007F0AAFDF3
:1017800031A007F0A7FD37A007F0A4FD3BA007F0AC
:10179000A1FD44A007F09EFD4BA007F09BFD51A0CA
:1017A00007F098FD5AA007F095FD65A007F092FD9F
:1017B0006FA007F08FFD75A007F08CFDBDE810400D
:1017C0007BA007F087BD0000203F202D2048656CDE
:1017D00070206D65200A00002062203C5541525463
:1017E000783E203C62617564726174653E2D2053C1
:1017F0006574206261756472617465206F6620553E
:101800004152547828302C31290A000028980008C9
:101810002064203C737472696E673E2D20555342DC
:10182000204469736B20544553542E0A0000000075
:101830002075202D20555342204469736B20544558
:1018400053542E0A00000000206D202D204578748E
:1018500065726E616C205352414D20544553542E95
:101860000A000000204D202D204261636B7570201E
:101870005352414D20544553542E0A002073202DBD
:101880002053442C4D4D4320436172642053696EB4
:10189000676C6520626C6F636B20546573742E0AED
:1018A000000000002053202D2053442C4D4D432098
:1018B00043617264204D756C746920626C6F636B58
:1018C00020546573742E0A002066202D2053657203
:1018D00069616C20666C61736820546573742E0AAC
:1018E000000000002067205B476E2047742047708F
:1018F00020476C5D202D205072696E742047726104
:101900007068696320476E2061742047703B0A004D
:1019100020202020202020202020202020202020C7
:1019200020202047743D302F312F3220666F7220E7
:10193000746578742061747461636865642E0A004C
:101940002020202020202020202020202020202097
:10195000202020476C3D204C696E6573206F662007
:10196000746578742061747461636865642E0A001C
:101970002070203C737472696E673E2D205072692E
:101980006E7420746573742E0A0000002050202DA0
:10199000205072696E7420746573742062792050CF
:1019A0004F5320636F6D6D616E642E0A000000005E
:1019B0002074205B7979206D6D2064642068682034
:1019C0006D6D2073735D2D207365742044617465A3
:1019D00020262054696D65200A0000002DE9FC4195
:1019E0004FF4FA6632466946012005F073F9002883
:1019F0002DD0324601A9012005F06CF9002826D02F
:101A00009DF800109DF804004FF6FF72484302EA6B
:101A1000C005B5F5005F1AD2302918D20D4808224A
:101A20000D4F0180002141808180C28018220281F7
:101A300041810C46C56008E039193246012005F0A5
:101A400049F9002803D0641CA4B2AC42F4D3BDE829
:101A5000FC810000A0BE0020B0BE002005490A683D
:101A6000521C0A604FF0D0410880034902200860F0
:101A70007047000084010020140C0140074810B595
:101A80000068400705D406F00DFE01F0C3F803F02E
:101A9000B3FDBDE81040042000F06EB80818014006
:101AA00010B5402000F06EF828B1094901200870F7
:101AB000402000F061F84FF48074204600F062F896
:101AC000002804D02046BDE8104000F055B810BDF5
:101AD000180000207FB50121442002F099F801216F
:101AE000084602F095F804248DF80F404420ADF824
:101AF0000C0003A91F4800F081FD0221042000F022
:101B000069FD009400248DF804400C208DF8050038
:101B100001258DF80650684600F044F84FF4A060A7
:101B200001F0A2FB08268DF808608DF809408DF8B9
:101B30000A408DF80B5002A801F064FB0621042036
:101B400000F048FD40208DF8044000908DF80560BD
:101B50008DF80650684600F025F817208DF808002B
:101B600003208DF809008DF80A5002A801F04AFB05
:101B70007FBD000000180140014908607047000067
:101B800014040140064A014600201268044B0A4032
:101B900014331B680B4202D0002A00D0012070478A
:101BA0000004014030B51A498379026853B30B68C9
:101BB00093430B600A1D13680468A3431360027902
:101BC0000A441368046823431360114A08321368F7
:101BD0000468A3431360131D1C680568AC431C60B4
:101BE0004479102C05D021440A68006802430A6039
:101BF00030BD116804682143116019680068014311
:101C0000196030BD0079084401689143016030BD1E
:101C10000004014070B5074C0025A07820F070004A
:101C200040F00C02A27065702178E01C02F084F88C
:101C3000257070BD7BBE002038B54FF4FA650024D6
:101C40002A466946012005F045F8002839D09DF85C
:101C50000000042835D12A466946012005F03AF8EB
:101C600000282ED09DF8000000282AD0062828D869
:101C700000F00CFE9DF80010124801290AD002293C
:101C800004D0032910D0042917D112E00178890764
:101C900000D50424007844F01204C10701D1800764
:101CA0000BD544F0400408E00078800705D52024D7
:101CB00003E00078C00700D06C242146012005F025
:101CC00017F938BD5602002008B54FF4FA6269468C
:101CD000012004F0FFFF00280FD00B4A9DF8000000
:101CE000002100BF01EB8103D35C834206D101EBED
:101CF00081001044D0F80100804708BD491C052927
:101D0000F0DB00F04FF808BD96A8010870B50A4C4A
:101D1000A678207808B1FFF77DFF0C20A070FFF7B0
:101D200079FFFFF777FF0225FFF774FF6D1C0F2D7A
:101D3000FADBA67070BD00007BBE002008B54FF432
:101D4000FA626946012004F0C5FF00280FD00B4A53
:101D50009DF80000002100BF01EB8103D35C8342AA
:101D600006D101EB81001044D0F80100804708BD86
:101D7000491C0629F0DB00F015F808BDAFA80108E2
:101D800070B5074CA578207818B1BDE87040FFF712
:101D900041BF0C20A070FFF73DFFA57070BD000093
:101DA0007BBE002070B50B4C05462078202803D957
:101DB0004FF02000207000E001D1FFF72BFF2078CA
:101DC000202805D20349C91C45542078401C2070A6
:101DD00070BD00007BBE0020064900204D220B187C
:101DE000401CC0B2DA702028F9D320200870FFF719
:101DF00011BF00007BBE002003480068000401D52D
:101E000000207047012070470808014008B50121F3
:101E1000042001F0FDFE48208DF8030003208DF81A
:101E200002004FF40040ADF800006946024800F09F
:101E3000E5FB00F025FA08BD0008014010B50121BE
:101E400098B0080201F0CCFE01214FF4F07001F0CF
:101E5000DFFE4FF6B370ADF8580018208DF85B0028
:101E600003208DF85A0016A9294800F0C7FB4FF649
:101E7000BB70ADF8580016A9264800F0BFFB4FF222
:101E80003F00ADF8580016A9234800F0B7FB40F218
:101E90003F60ADF8580016A9204800F0AFFB0020C5
:101EA0000A210224CDE91001E106CDE914011290C6
:101EB000139008210090CDE901011021CDE9031014
:101EC0000590069009020790CDE908010A900B9051
:101ED0000C900FA8CDE90E040D90684600F030F884
:101EE0006846009400F02CF804200090684600F04A
:101EF00027F80121002000F013F80121022000F052
:101F00000FF80121042000F00BF818B010BD0000FC
:101F10000014014000180140001C01400020014055
:101F20004FF0204202EB80000029016802D041F00E
:101F3000010101E0014A114001607047FEFF0F00FE
:101F400030B5D0E901121143D0E903231A431143FC
:101F500042690368114382691143C2691143026AED
:101F60001143426A1143826A1143C26A1143026BF0
:101F700011434FF0204242F823108168082906D10E
:101F8000016802EB81010B6843F040030B60416B79
:101F9000D1E9003443EA04138C688D89240244EAB1
:101FA000054423430C8A43EA04530C7D896943EAC0
:101FB00004630B43016802EB81014B60C16AB1F518
:101FC000804F07D000686FF0704102EB8000C0F8CE
:101FD000041130BD816B0068D1E9003443EA041379
:101FE0008C680D8A240244EA055423430C7D8969D8
:101FF00043EA046302EB80000B43C0F8043130BDB8
:1020000010B5002303E09C18C4545B1C9BB28B42A8
:10201000F9D310BD2DE9FC5F00264D4C4D4D0F4608
:10202000009601962670082129604FF4806AC5E960
:10203000036A10214FF0400BC5E9011BB146284649
:1020400002F0F2F91020FEF721FE2070002871D175
:102050002089A8460104284629603721C0F80C9041
:10206000C0E9011B4D463B48C8F810A002F0DCF95E
:102070003720FEF70BFE207000285BD1411E35484B
:102080004FF0020914300160082141603021C0E99D
:1020900002190121C0E9045102F054F940463321EC
:1020A000C0E90051C8E902B52A48C8F810A002F0FA
:1020B000BBF93320FEF7EAFD207000283AD1264D07
:1020C0004FF4001BEA4640F22A68686B10EA080FDA
:1020D00008D0082002F064F978B1082002F01AF95B
:1020E000042026E0584602F05BF90028EDD002F00B
:1020F00095F94AF82600761CE7E7022002F050F92D
:1021000020B1022002F006F9484612E0202002F039
:1021100047F920B1202002F0FDF8062009E04FF435
:102120000075284602F03CF930B1284602F0F2F87A
:1021300007202070BDE8FC9F40F2FF5002F0EAF853
:10214000009800BA7860019800BA38602078F1E70A
:10215000DC00002058B800200080014070B50F2836
:1021600001D80F2901D9002070BD884202D902464A
:1021700008461146884203D1BDE8704000F03EB8E1
:1021800008B90F2905D00C1A641C0546012C0AD881
:102190000BE0BDE8704000F00BB828466D1C00F065
:1021A0002DF80028E0D0641EF7D2012070BD000099
:1021B00070B500F0C9F9104D4FF4805421462846FF
:1021C00000F09FFAC72000F019F92146284600F0D8
:1021D0009AFA2146284600F094FA052000F00EF9FC
:1021E000A52000F00BF9C007FAD12146284600F0DF
:1021F0008AFA012070BD0000000C01402DE9F04179
:1022000000250F2832D8040400F09EF91A4F4FF42D
:1022100080563146384600F074FAD82000F0EEF8C7
:10222000C4F3074000F0EAF8C4F3072000F0E6F832
:10223000002000F0E3F83146384600F064FA3146F9
:10224000384600F05EFA052000F0D8F80B4BA520C8
:1022500000F0D4F80446C00702D06D1C9D42F6D3AE
:102260003146384600F04FFAE00702D00020BDE8C2
:10227000F0810120FBE70000000C0140000E270761
:1022800070B501218D0386B0284601F0B5FC01210F
:10229000082001F0BDFC18208DF8030003248DF800
:1022A00002406810254EADF800006946304600F047
:1022B000A5F96800ADF800006946304600F09EF9C7
:1022C00004208DF80300ADF800506946304600F058
:1022D00095F9AD10ADF8005010208DF803008DF881
:1022E00002406946304600F089F92946304600F040
:1022F0000AFA0020ADF804004FF48271ADF8061020
:10230000ADF808000221ADF80A100121ADF80C105B
:102310004902ADF80E100821ADF81010ADF812000A
:102320000720074CADF8140001A9204603F090F8EF
:102330000121204603F06EF806B070BD000C01408C
:10234000003800402DE9F0411446064608190D46B4
:10235000B0F5801F17D8B4B1DFF850804FF4805724
:102360003946404600F0CDF9032000F047F8C5F3A8
:10237000074000F043F8C5F3072000F03FF8E8B24B
:1023800000F03CF807E00020BDE8F081A52000F057
:1023900035F806F8010B2000A4F10104A4B2F5D130
:1023A0003946404600F0AFF90120EDE7000C01404E
:1023B0002DE9F041104F4FF480563146384600F079
:1023C000A0F99F2000F01AF8A52000F017F80546A4
:1023D000A52000F013F80446A52000F00FF8804671
:1023E0003146384600F08FF9280440EA042040EADC
:1023F0000800BDE8F0810000000C014006490A8891
:102400009207FCD5044A121D10800888C007FCD032
:102410001088C0B270470000083800402DE9F04134
:102420000F4F4FF4805600253146384600F069F9C9
:102430000520FFF7E3FF0B4BA520FFF7DFFF044666
:10244000C00702D06D1C9D42F6D33146384600F0DD
:102450005AF9E00702D00020BDE8F0810120FBE737
:10246000000C0140804F12002DE9F04707460E4650
:10247000C8B24142CDB2140AB11802F0FF09B1F559
:10248000801F19D8C2B14FF4807AC0B1F0B2404277
:10249000C0B206EB00083CB3501B80B2040A00F047
:1024A000FF092A463146384600F062F8002804D079
:1024B0003D444646574635E00020BDE8F0871CB352
:1024C00055462000A4F10104E4B20BD02A4631465F
:1024D000384600F04DF80028EFD006F5807607F575
:1024E0008077EEE74A460FE0A9450DD9A9EB050034
:1024F000C4B22A463146384600F03AF80028DCD00B
:1025000041467819224618E03146384615E03A46E9
:102510003146284600F02CF80028CED006F580760B
:1025200005F580752000A4F10104E4B2EFD15FEA63
:10253000090006D002463146284600F019F8002866
:10254000BBD00120B9E7000070B5084D4FF48054AE
:102550002146284600F0D5F80620FFF74FFF214618
:102560002846BDE8704000F0CEB80000000C0140E5
:102570002DE9F04114460D460646FFF7E5FFDFF86A
:1025800050804FF480573946404600F0BAF8022098
:10259000FFF734FFC5F30740FFF730FFC5F307200F
:1025A000FFF72CFFE8B2FFF729FF03E03078FFF7D1
:1025B00025FF761C2000A4F10104A4B2F6D139460F
:1025C000404600F0A0F8BDE8F041FFF727BF00004B
:1025D000000C014010B58A0721F003040649130FCF
:1025E00021440F228C689A4094438C608A689840FA
:1025F00002438A6010BD000000000140F0B5CA78B7
:10260000002502F00F03D20601D58A7813430C7817
:102610004FF00F0E0122ECB1D0F800400F8802FA03
:1026200005F63740B74211D14FEA850C0EFA0CF788
:1026300024EA070703FA0CF43C43CF78282F02D092
:10264000482F02D002E0466100E006616D1C082DB3
:10265000E4D304600C88FF2C1ED944685FF00006A8
:1026600006F1080702FA07F50F882F40AF420FD195
:102670004FEA860C0EFA0CF7BC4303FA0CF73C4306
:10268000CF78282F00D14561CF78482F00D1056140
:10269000761C082EE4D34460F0BD0000F0B5144C65
:1026A000002801DAE36900E06368420D120185B297
:1026B000C0F301579540C0F30346032F05D0C20273
:1026C0000AD50322B240934307E023F070626368A7
:1026D00023F07063636002E0AB4343F0706201B1CA
:1026E0002A43002801DAE261F0BD6260F0BD00001B
:1026F000000001400246002092680A4200D00120FA
:102700007047416170470161704700002DE9F04159
:10271000494800224A4B027048485D780178401CC5
:102720000078814206D145F00200587045480260A9
:10273000BDE8F081401CC1B243486529017000D357
:10274000027000783D4FC0EBC00000EB80013F48B5
:1027500041F679560C1841F67850BF1C215C401E9A
:10276000A65D205C3E70002961D0A1F1020E384FB9
:10277000384EDFF8E4C0BEF1160F09D807EB810729
:102780000CEB810157F8047C376051F8041C0AE017
:102790003249098819B132493160304903E039685A
:1027A0003160DCF800100E88002EC1D025F0100535
:1027B00045F008055D7041F67A53E65C294B1870C8
:1027C0004C894B88641C6343274C23608C89E31A33
:1027D0009DB2264B1D800C88CB885C43E71704EB29
:1027E0005774234FE4103C60224F16B17343D9084D
:1027F00005E089885943CB1701EB5371C910396043
:10280000B5FBF4F11C4B19801C4B04FB11511980D2
:102810001B490A601B490A701B490A7018B1BDE8C0
:10282000F041FEF74BBBBDE8F041FEF72FBDBDE820
:10283000F04102F0FFBE000070010020463E002083
:1028400054020020840100206801002000130020B1
:102850008C0100206C020020EC010020A0BE0020B2
:10286000B0BE00205D020020700200204C0200205B
:1028700074020020780200204E0200205002002046
:102880006C0100206B0100206A010020134B10B581
:10289000187820F00200187003F052F91049002255
:1028A000A0B11878C40705D020F0080040F010004F
:1028B0000A60187000F0FE0018700968B1F1805FBE
:1028C00002D940F004001870188810BD0A6018780A
:1028D00020F0100040F00100F5E700005602002053
:1028E0008401002000207047F0B58DB004463022EE
:1028F0001C496846FDF738FC60696423411E91FB62
:10290000F3F2CD1701EB9575C2EBA5029E0091FB8A
:10291000F6F51544226987070DD190FBF3F703FB09
:10292000170323B990FBF6F306FB130018B9022A2C
:1029300001DD012000E000206B4603EB8202E3682A
:1029400052F8042C1A4440F26D1301FB0351114458
:102950000844072190FBF1F201FB1200A0610DB0C9
:10296000F0BD0000D49E00082DE9F84301214FF48A
:10297000DE7001F04DF901212B48FFF78FFE10208A
:102980008DF8030003208DF80200284E0824ADF8CE
:10299000004069463046FFF731FEA001DFF8908025
:1029A000ADF8000069464046FFF728FEDFF8849046
:1029B0000225ADF8005069464846FFF71FFE1E4F3E
:1029C000ADF8005069463846FFF718FE4025ADF8CF
:1029D000005069463046FFF711FE14481430056078
:1029E00048208DF803006001ADF8000069464046BC
:1029F000FFF704FE0125ADF8005069464846FFF791
:102A0000FDFDADF8005069463846FFF7F7FDA0021E
:102A1000ADF8000069460948FFF7F0FD03481030A3
:102A20000460BDE8F883000000023000001401409B
:102A3000000C014000180140000801400010014056
:102A4000FEE7000038B54F4C002200920546227088
:102A500020894D49000408600D2048604020C1E9EC
:102A6000020200010861084601F0DEFC4748416BA4
:102A7000009111F0450FFAD00098400703D50320CC
:102A80002070042004E00098C00704D001202070CA
:102A900001F040FC74E001F07DFC00900D2802D0B4
:102AA0001020207038BD40F2FF5001F033FC0020B0
:102AB00001F088FC0090C0F343202870344900984E
:102AC00008425DD00098002801DA1C2038BD400083
:102AD00001D5092038BD0098800001D50A2038BDF5
:102AE0000098C00001D50B2038BD0098000101D529
:102AF0000C2038BD0098400101D50D2038BD00984C
:102B0000C00101D50E2038BD0098000201D50F206C
:102B100038BD0098400201D5102038BD00988002D1
:102B200001D5112038BD0098C00201D5122038BD52
:102B30000098000301D5132038BD0098400301D54B
:102B4000142038BD0098800301D5152038BD0098A9
:102B5000C00301D5162038BD0098000401D5172008
:102B600038BD0098400401D5182038BD0098800475
:102B700001D5192038BD0098000701D51A2038BDAD
:102B8000207838BDDC00002058B8002000800140CB
:102B900008E0FFFD044910B50020088003F0C6F9E5
:102BA000BDE81040FEF796BF000008680020401CFA
:102BB000C0B20A28FBD3704708B501214FF4C0709A
:102BC00001F026F84FF4C060ADF8000010208DF839
:102BD000030002208DF8020069460B48FFF70EFD46
:102BE0004FF48040ADF8000069460848FFF706FD45
:102BF0000322FF21002000F059F805484FF4FA7134
:102C000041800121417008BD001C014000200140AD
:102C100024010020074910B50020488002460146E3
:102C200000F044F801220021BDE81040084600F001
:102C30003DB800002401002070B50F4C05466078B7
:102C4000012818D120780C2801D300202070217889
:102C50000122C1F10B0340F6FF709A409043064AEF
:102C6000A0801032515C2A4600F020F8012D02D1DC
:102C70002078401C207070BD2401002070B5C10771
:102C80004FF4806001D0074901E00649091D086042
:102C9000FFF78CFF044D4FF480442C61FFF786FF53
:102CA0006C6170BD101C0140002001402DE9F0470F
:102CB0000D4617494FF4007816460746C1F80080C4
:102CC0005FF0000427FA04F0C0B2FFF7D7FF641CDE
:102CD000E4B20C2CF6D3002405F00F0705F0F00940
:102CE00086B1012E11D025FA04F000BFFFF7C6FF10
:102CF000641CE4B2082CF3D30549091FC1F8008015
:102D0000BDE8F08727FA04F0F0E729FA04F0EDE7D0
:102D1000141C01402DE9F0474FF47A76B0460127A4
:102D200040F2E73942F6E06530E00020401C80B216
:102D3000A842FBD35FEA0800A8F101081FFA88F84F
:102D4000F3D116A000F0EAFE4C4649460020401C94
:102D500080B2A842FBD30800A1F1010189B2F5D1EC
:102D6000B04612A000F0DAFE0020401C80B2A8425B
:102D7000FBD32000A4F10104A4B2F5D10FA000F010
:102D8000CDFE3800A7F10107FFB204D0A8F1010879
:102D90001FFA88F8C9E7BDE8F087000038383838EE
:102DA000383838383838383800000000303132339D
:102DB00030313233343536370000000030313233B1
:102DC000303132332E34353637000000FEE7000054
:102DD000074B00B50548197830F81100FEF73EFEA4
:102DE0001878401C00F00700187000BDDE7501085F
:102DF000790100207047000070B5044603F0A8F97F
:102E00000028FBD10948AA210180094B55221A80CC
:102E10008025058001801A8004F1C0443020208084
:102E2000BDE870404FF4200000F004B8AA0A00602A
:102E30005405006010B54FF0C04116E00A88401EEE
:102E40000B8802F0400203F040039A4207D00A8840
:102E50000B8802F0400403F040039C4201D10020A3
:102E600010BD920601D5022010BD0028E6D1032036
:102E700010BD000010B50B4CAA2323800A4C55232B
:102E80002380F0244FF0C043002A5C5208D000BFDA
:102E90004FF0C0435B5A891C20F8023B521EF7D109
:102EA00010BD0000AA0A0060540500600849AA226B
:102EB0000A80084B55221A8090220A804FF0C041A8
:102EC0000A8802804A884280F0200880704700000B
:102ED000AA0A00605405006070B515460E46044607
:102EE00003F036F90028FBD134F8021B304600F01D
:102EF00007F8B61C6D1E002801D1002DF4D170BD5D
:102F000070B50D464FEA000403F022F90028FBD10A
:102F10000748AA210180074A55211180A02101807C
:102F200004F1C0442580BDE870404801FFF782BF2E
:102F3000AA0A00605405006010B54FF0C84116E0C1
:102F40000A88401E0B8802F0400203F040039A42B8
:102F500007D00A880B8802F0400403F040039C422B
:102F600001D1002010BD920601D5022010BD00281D
:102F7000E6D1032010BD000010B50B4CAA2323801E
:102F80000A4C55232380F0244FF0C843002A5C529A
:102F900008D000BF4FF0C8435B5A891C20F8023BA1
:102FA000521EF7D110BD0000AA0A00645405006447
:102FB00070B515460E46044603F0CAF80028FBD14A
:102FC00034F8021B304600F007F8B61C6D1E0028CE
:102FD00001D1002DF4D170BD70B50D464FEA00044B
:102FE00003F0B6F80028FBD10748AA210180074A60
:102FF00055211180A021018004F1C8442580BDE83D
:1030000070404801FFF798BFAA0A006454050064A5
:103010002DE9FC4702F020FF6846FFF747FFBDF8A7
:103020000220BDF8001038A006F03CF94FF400670C
:10303000AA2239463D48FDF7A9F8DFF8F4900021AF
:10304000484603F032F80121484602F0B9FF394CF6
:10305000002565804FF470284046FFF7CDFE82467C
:10306000484602F0B7FF6426B0FBF6F1628832A052
:1030700004F000F9514639A004F0FCF8002148465C
:1030800003F013F80121484602F09AFF65803A46A2
:1030900041462648FFF720FF8246484602F09AFF45
:1030A000B0FBF6F1628836A004F0E4F851463EA089
:1030B00004F0E0F85A22B9001C48FDF767F8002137
:1030C000484602F0F2FF0121484602F079FF658090
:1030D0003A4641461548FFF7CDFE484602F07AFFD2
:1030E000B0FBF6F1628839A004F0C4F80F4D00245B
:1030F000214635F814203EA006F0D4F8641C202C9C
:10310000F6D3BDE8FC8700000D0A2053696C6963A3
:103110006F6E49443D307825782C2044657669638C
:103120006549443D307825780D0A0000C46E0020C2
:1031300000100040000000200D0A204E4F525F4555
:1031400072617365426C6F636B2074696D653A25BB
:10315000646D737C7C25646D730D0A000D0A204E2E
:103160004F525F4572617365426C6F636B20466CB2
:103170006173685374617475733A25640D0A0000B5
:103180000D0A204E4F525F5772697465427566662C
:1031900065722074696D653A25646D737C7C256465
:1031A0006D730D0A000000000D0A204E4F525F574C
:1031B0007269746542756666657220466C617368F3
:1031C0005374617475733A25640D0A000D0A204E1C
:1031D0004F525F526561644275666665722074691C
:1031E0006D653A25646D737C7C25646D730D0A00F2
:1031F0000D0A2068427566665B25645D3D30782562
:1032000078000000F0B50F21C478027801234FF058
:10321000E026DCB1124C2468457804F4E064C4F57F
:10322000E064240AC4F10407E1408478BD400C4006
:103230002C4321010B4C1155007800F01F018B40ED
:10324000400906EB8000C0F80031F0BD02F01F001D
:103250008340500906EB8000C0F88031F0BD0000CB
:103260000CED00E000E400E0024908430249086078
:10327000704700000000FA050CED00E008B54FF4BF
:10328000A060FFF7F1FF31208DF8000000208DF8DD
:10329000010001208DF802008DF803006846FFF759
:1032A000B1FF08BD30B5012187B0C80300F0A4FC10
:1032B0000121082000F0ACFC18208DF81700032431
:1032C0008DF8164028201D4DADF8140005A928469C
:1032D000FFF794F91021ADF814108DF817108DF840
:1032E000164005A92846FFF789F910212846FFF75F
:1032F0000AFAA003ADF800004FF48270ADF80200A6
:103300000020ADF804000221ADF806100121ADF84F
:103310000C00ADF80810ADF80E0049020720084C6B
:10332000ADF80A10ADF810006946204602F090F89A
:103330000121204602F06EF807B030BD000C0140BC
:10334000003C004008B50121082000F061FC03208A
:10335000ADF8000010218DF803108DF802006946C9
:103360000A48FFF74BF90420ADF800006946084809
:10337000FFF744F94020ADF8000028208DF8030045
:1033800069460448FFF73AF908BD0000000C014007
:103390000010014000200140F0B589B00121032058
:1033A00000F02AFC41F28830ADF818002C482D4975
:1033B000002400684FF08046B0FBF1F0401EADF8ED
:1033C0001400ADF81A40ADF8164005A9304602F0D9
:1033D0006FFE0021304602F0E3FD684602F050FE29
:1033E000ADF80040ADF806406946304602F008FEF0
:1033F0000121304602F0DEFD1C208DF81000012571
:103400008DF811508DF812408DF8135004A8FFF775
:10341000F9FE154F05A9384602F04AFE69463846BE
:1034200002F0EEFD0121384602F0C4FD4FF4A06029
:10343000FFF71AFF1D208DF810008DF811508DF840
:10344000124004A8FFF7DEFE01221146304602F0CA
:10345000CFFD01221146384602F0CAFD09B0F0BD89
:103460004001002040420F000004004030B587B00A
:103470000121102000F0CCFB0121480200F0C8FB24
:103480000124ADF8144000258DF8175005A9104807
:10349000FFF7B4F88DF804408DF805408DF8104022
:1034A0000C4C00950295039569462046FDF7ECF912
:1034B000022301220A212046FDF70AFA01212046B3
:1034C000FDF7CEF901212046FDF73CFA07B030BDEB
:1034D00000100140002401400149086270470000CB
:1034E00000000E42704700002DE9FC474FF4FA6AD5
:1034F00052466946012003F0EDFB00284BD09DF8B1
:10350000000014262D4D2E4C4FF000084FF00109FD
:1035100001281AD018283ED8A778207808B1FEF7DD
:1035200079FB9DF80000C0B3524601A9012003F0C9
:10353000D1FB00282FD09DF80400207102202070BC
:10354000287820F0800028702AE0524601A9012046
:1035500003F0C0FB00281ED01A48C06800281AD00B
:10356000A0788DF80000207808B1FEF753FBA67014
:1035700084F803909DF8040020712878324620F0EA
:10358000800028700221E01C00F0D6FB84F8008047
:103590009DF80000A070BDE8FC87FFE784F800906C
:1035A000A6709DF80000E07032462178E01C00F023
:1035B000C3FB84F80080A770EDE7000054020020F0
:1035C0007BBE0020A0BE002070B5104D0024104826
:1035D0002C80EC600480417841F0120141700D486C
:1035E000232104600C48FCF7D8FD2C606C60AC60B3
:1035F00001F01AFF0948012101604FF0D0410C8011
:103600000221016006490420486170BDA0BE00206F
:1036100054020020680200207BBE0020100C0140F4
:103620000010014002480068C0F30B007047000022
:103630004C24014030B5FFF7F5FFC209921C1F2A48
:1036400000D91F22444C2168B1F59D7F01D80E207E
:1036500044E0B1F5A77F01D80D203FE0B1F5B37F7D
:1036600001D80C203AE0B1F5C27F01D80B2035E03B
:10367000B1F5D07F01D80A2030E0B1F5E57F01D85F
:1036800009202BE0B1F5FE7F01D2082026E040F2B0
:103690003320814201D2072020E0B1F5207F01D8FC
:1036A00006201BE0B1F5377F01D8052016E0B1F503
:1036B000517F01D2042011E040F23240814201D218
:1036C00003200BE040F21650814201D2022005E0B7
:1036D000B1F5DD6F01D8012000E000201F4BC2EBE7
:1036E000021203EB82021E4B52F820201D481A6082
:1036F0004FF6FF750078504305EA40001A4D2D68DB
:1037000005441A48B5EB810F19D3052101EB550586
:103710002560417841F020014170154801883C291D
:1037200009D33B210180134C89B254F82140AC42AB
:1037300009D8491E01800904090CF4D103E041783D
:1037400021F0200141704FF6C370B0EB420F00D35F
:103750005000186030BD000058020020F8760108C3
:10376000740100206402002068020020540200203E
:103770007A010020F075010800B54FF0D040002319
:1037800009490380022008604FF4FA6002F084F8CF
:103790000649042048610649FF2008700548037067
:1037A0000548038000BD0000100C014000100140DE
:1037B00078010020790100207A0100202DE9F041F4
:1037C000FEF7A4FF204C6078800701D502F036F99F
:1037D000FFF7FEFA1D48006802F05EF860781C4EA4
:1037E000DFF8708000074FF0050702D5377003211E
:1037F0001FE01948007800B3FDF75EFC184900206F
:10380000164D088017494FEA000408604860886038
:1038100015F8010BE1B202F015F8641C302CF7DB4F
:1038200002F02AF810490120087002F045F83770BC
:10383000022188F80010BDE8F08104200B493070A7
:1038400070200880F7E70000540200205802002092
:10385000780100205C0200207E01002010BD0020C5
:1038600080010020B0DE00207001002072010020E5
:1038700070B5FFF7ADFA2A48006802F00DF8294C40
:10388000294800252178182936D2052101702749B9
:10389000022008702648007880070FD52548417817
:1038A0004A0708D521F00401417001F0E5FFBDE8A9
:1038B000704002F001B841F0040141701E480078E8
:1038C000B0B1FDF7F9FB1E481C4E05801D48056090
:1038D000456085605FF0000516F8010BE9B201F064
:1038E000B1FF6D1C302DF7DB01F0C6FF01F0E4FFE6
:1038F0002078401C207070BD1349144A0D60118857
:1039000011B1134B198015802570042101701149E4
:103910001020088010480649491E0078087070BDC4
:103920005802002070010020780100205C02002075
:10393000483E0020540200207E01002010BD0020DF
:1039400080010020B0DE0020680200207C01002001
:103950007A010020720100206801002070B5FFF795
:1039600037FA1648006801F097FF1548154C427861
:10397000D1060CD41448007810B1FDF79FFA01E08D
:10398000FDF784FC052020700320104913E0104946
:10399000104D00230B60298811B10F4E31802B8010
:1039A00022F00801417004200C492070102008808A
:1039B0000B480C490078087070BD000058020020C8
:1039C00054020020780100205D0200205C020020EB
:1039D000680200207C0100207A0100207201002092
:1039E00068010020473E00202DE9F0472C494FF0A8
:1039F000010AC1F800A0FFF7EBF92A4C2A4E2088F3
:103A000038B1306801F048FF2088401E2080BDE8B2
:103A1000F087264F264D38782870FEF777FE254B25
:103A20005878800703D5BDE8F04702F007B8306842
:103A300001F032FF5878DFF88080DFF880900007CF
:103A40004FF0050603D588F80060032120E01C48EC
:103A5000007800B3FDF730FB1B490020194D0880AA
:103A60001A494FEA000408604860886015F8010BA5
:103A7000E1B201F0E7FE641C302CF7DB01F0FCFE44
:103A800001F01AFF124981F800A088F800600221B5
:103A900089F80010BBE77020208038782870B6E7DE
:103AA000100C014072010020580200206801002023
:103AB000473E002054020020780100205C020020D4
:103AC0007E01002010BD002080010020B0DE00201B
:103AD0007001002000B5FFF77BF90B48006801F08A
:103AE000DBFE0A48417821F0200141700848017846
:103AF000491CC9B20170042905D301210170054890
:103B000005490078087000BD5802002054020020CA
:103B10007C0200205C02002078010020FEB5040039
:103B20004CD02078002849D020220C216846FCF790
:103B30002DFB2046FCF748FB02460C2800DD0C223A
:103B400021466846FCF710FB0B2000249DF80B2053
:103B50001B4E014625466B46202A02D001252E2AFF
:103B60000BD0324412F8202C22431A540024401E59
:103B7000491E5A5C202A02D002E08024F8E70DB9E1
:103B80000029E9DA002100280DDB1A5C202A03D085
:103B90001954A0F10100F6E7094920391A5C525C7A
:103BA0001A54401EFAD507489DE80E000EC006487C
:103BB000009901600199416002998160FEBD000099
:103BC000049F00083401002084B80020034A516893
:103BD00021F4404101435160704700000010024051
:103BE000044A0029516901D0014300E08143516139
:103BF0007047000000100240044A0029D16901D03A
:103C0000014300E08143D161704700000010024091
:103C1000044A0029916901D0014300E08143916188
:103C200070470000001002400248416A41F0807174
:103C3000416270470010024030B520494A6812F0D6
:103C40000C031F4A03D0042B01D0082B22D00260A2
:103C50004A680F231B4C03EA1212A35C0268DA4085
:103C600042604B68072505EA1323E35C22FA03F35D
:103C700083604B6805EAD323E35C22FA03F2C26057
:103C80004968032303EA9131231F595CB2FBF1F128
:103C9000016130BD4A684B6802F470124FF00204B3
:103CA00013F4803F04EB924202D04B689B0301D592
:103CB000054B00E0024B5A43C9E7000000100240E8
:103CC00000127A005801002000093D000246002041
:103CD00053090949012B0BD0022B0BD0D1F824102A
:103CE00002F01F02012393400B4200D001207047D5
:103CF0000968F5E7096AF3E7001002400649002267
:103D000081F8202081F82020012802D0042802D147
:103D1000052081F82000704700100240014908602A
:103D2000704700003C04424202490A6A02430A62A8
:103D300070470000001002402DE9FF5F93460E46D9
:103D40000546FCF74BFFE84CE84804F101092178EF
:103D50000078401C01446520B1FBF0F200FB121218
:103D600099F800108A4217D1DFF880A380462178A5
:103D70009AF80000401C0144B1FBF8F208FB121055
:103D800099F80010814201D2401A00E0081AC7B227
:103D9000FCF724FF032FEAD3212E00DD21264FF06C
:103DA00000085FEACB60C24670D5D14800780106B2
:103DB0006DD4022E02DC85F802A069DB2978002987
:103DC00066D06978302904D0312906D0322904D050
:103DD00007E0C74920F0800002E0C54940F08000BC
:103DE000087040F23B11C348FCF7D7F92878C24F5E
:103DF000012809D1C148018931B10078802803D157
:103E0000388808B9FCF722FEB9480078000672D558
:103E1000287818286FD8B5480121534680F800A0AB
:103E2000B44801702A78427080F802B0A978C17055
:103E30002978012903D1398809B1AF4F04E0B0498D
:103E400001EB820151F8047C69784FF0080C3229AB
:103E500052D17988F1B301F0FF08AA49B8F1080FEF
:103E600081F8008001D981F800C0DFF89CC20CEB1A
:103E7000820252F8042C01927A890092202A01DDF4
:103E8000202200924FF001089A4620E02CE02FE01B
:103E9000A0E000BFC8EBC80000EB800195480844D3
:103EA000CDE90201DDE90021C01CFCF75DF979894B
:103EB0000198904A0844039910F8013B535401902B
:103EC000029880F801A008F1010000F0FF088D4978
:103ED000097800E010E0491C8845DBD389484FF0A1
:103EE000010801788148017081480078000671D589
:103EF000012E58D05FE022E03888F9887B8848435B
:103F00007989FA68491C03FB1121C21700EB527032
:103F1000C010B1FBF0F21C2492FBF4F37948D9B243
:103F200004FB132201700AB1491C0170C9B20829AF
:103F300001D980F800C0304604B0BDE8F09F207879
:103F4000401CC0B22070652802D3504684F800A0FF
:103F5000C0B2C0EBC00000EB80026C48131841F601
:103F6000775203F802A0227841F67853C2EBC202DE
:103F700002EB820202442978D15422785B1CC2EB06
:103F8000C20202EB8202024402F803B02278A9784E
:103F9000C2EBC20202EB820210445A1C8154584602
:103FA00001F0C2FCC7E7287828B950484FF0010853
:103FB0000178544801704D48524900780978884288
:103FC0003DD34B4900270A7822F080020A70494A03
:103FD000107025E044E02078401CC0B220706528B5
:103FE00004D384F800A001E0FCF7F8FD217899F8EB
:103FF00000008142F8D0C7EBC70000EB80013D48CC
:1040000001442078C0EBC00000EB80023F4802442E
:1040100041F6775010442322FCF7A6F87F1CFFB22C
:10402000324800788742D6D93049B8F1000F81F87C
:1040300000A009D0584601F077FC01207CE72B490D
:1040400000F10100087003E029480078000607D558
:1040500026480078C0EBC00000EB8001254811E045
:104060002078401CC0B22070652802D3504684F8E6
:1040700000A0C0B2C0EBC00000EB800123480144A7
:1040800041F677500844002480F802B080F801A07F
:10409000274604E0C2197F1C641CD170E4B2B4420C
:1040A00004DA295D202901D1202FF3DBB44211DA93
:1040B000295D40290AD1817841F00201817003E035
:1040C000C219295DD1707F1C641CE4B2B44201DACC
:1040D000202FF5DB077006480078000602D458460A
:1040E00001F022FC384627E7463E00206901002007
:1040F0005402002040BD0020A0BE0020006C004003
:10410000EC010020520200208C010020001300204E
:104110000248018841F010010180704704280040E6
:104120000248018821F010010180704704280040F6
:1041300006480188031D1A880088814203D0198827
:1041400041EA0040704742EA0140704718280040A9
:10415000044A0029118801D0014300E08143118005
:10416000704700000028004000B50246FFF7D0FF6E
:104170000449100C0880081D02805DF804EBFFF76D
:10418000CFBF00001828004000B50246FFF7C0FF6F
:104190000449C2F303400880081D02805DF804EB67
:1041A000FFF7BEBF08280040024801888906FCD5F9
:1041B00070470000042800400448018821F00801ED
:1041C000018001880907FCD57047000004280040E1
:1041D00000F1C04002780A7042784A708078887096
:1041E0007047000070B5084D0C464FF40012296866
:1041F000914205D20B19934202D82246FEF7BCFE2B
:1042000028682044286070BD080000200C4800B5D4
:104210000178002321F0440101700A480B49038012
:1042200009480360042008615020FDF717FC4FF493
:10423000FA6001F031FB064803700648038000BDB8
:104240005402002088010020840100200010014059
:10425000790100207A0100202DE9FC4700262B4D32
:104260008146009601962E70304600F0ABF8800132
:1042700001D50E2030E02889694680B2FDF7CAFEDC
:104280002870002829D137212520214C4027019A68
:104290004FF0060A4FF48068B9F1010F1FD0D20326
:1042A0001AD52889000484E88300C4E903682046FD
:1042B00000F0BAF83720FCF7E9FC287000280CD190
:1042C000C4E9006AC4F81080C4E90276104800F01E
:1042D000ABF80620FCF7DAFC2870BDE8FC87520337
:1042E000FAD52889000484E88300C4E903680848F3
:1042F00000F09AF83720FCF7C9FC28700028ECD1B0
:104300000220C4F81080C4E9000ADDE7DC000020C8
:1043100058B80020014988637047000000800140C0
:10432000014988637047000000800140014908602E
:1043300070470000A000304201490860704700004B
:104340008C05304210B5094A01685162416891629A
:10435000D16A21F0F703D0E902142143D0E90440E7
:10436000044321431943D16210BD00000080014085
:1043700006480021016041608160C1604162816244
:10438000C162034A8263C16370470000008001403C
:10439000FF07C00001480069C0B2704700800140BB
:1043A000034A01460020526B0A4200D001207047A8
:1043B000008001400248006800F0030070470000E0
:1043C0000080014008B5024908440090006808BD1B
:1043D0001480014000F016BD044A0029D16B01D0C1
:1043E000014300E08143D163704700000080014039
:1043F00030B5094B5A6847F6FF618A43017D8468EE
:10440000C568214344682C43214304680069214363
:1044100001431143596030BD0080014001480068EC
:10442000704700008080014010B5084A0168916023
:10443000D168CB0AD0E901142143D0E903400443F9
:10444000DB0221431943D16010BD00000080014010
:1044500001490860704700000080014008B5012054
:104460008DF8000080210548FEF744F910B10020C6
:104470008DF800009DF8000008BD0000001001400C
:104480002DE9F0411A4D002602462E70696827205A
:10449000032913D019B1012901D0022925D1B2F580
:1044A000805F0BD04FF400680127124C42450ED1BB
:1044B0000120FFF7D1FE287018B116E02870BDE882
:1044C000F081277526606660C4E9026809E0002073
:1044D000FFF7C2FE287040B9277526606660A660A7
:1044E000E66004482661FFF783FF2878E7E70000CD
:1044F000DC00002040B800202DE9FC5F804600264B
:10450000424C434801968DF80060267040680F4683
:104510004FEA1050B146800601D425200DE03D48F9
:1045200040683D49C0B2801CB1FBF0F00190002012
:10453000FFF748FF800103D50E202070BDE8FC9FE7
:10454000334D6068A0354FF0400A4FF4806B02286D
:1045500005D038B1012805D0022803D025E04FEA64
:1045600058287F0A2020C5F808A0C5E900802848FF
:10457000C5E9039BD846A030FFF756FF2020FCF783
:1045800085FB20700028D9D12120C5F808A0C5E9F5
:1045900000701F48C5E90398A030FFF745FF2120B0
:1045A000FCF774FB20700028C8D14946262285E814
:1045B00006041748C5E9039BA030FFF735FF262006
:1045C000FCF764FB20700028B8D100E0761C01984D
:1045D0008642FBD36846FEF735FA20704FF0FF3570
:1045E00005E06846FEF72EFA20706D1E08D010F028
:1045F000FF0F05D19DF800000728F2D00628F0D063
:1046000000F0D1F90028FBD1207897E7DC000020EA
:10461000B8B7002000800140C0D4010010B5184C8C
:104620006078002824D14FF42061FFF765FF6070A7
:10463000014614A004F036FE6078C8B905234FF493
:1046400000720021154800F069FC6070014614A05A
:1046500004F028FE00F064FD6070014619A004F02B
:1046600021FE00BF00F09FF90028FBD1607820B147
:104670001DA0BDE8104002F0FDBD21A0F9E700003B
:10468000000000200D0A2053445F457261736520CD
:104690005374617475733D2564200000C45A002072
:1046A0000D0A2053445F526561644D756C74694214
:1046B0006C6F636B73205374617475733D25642054
:1046C000000000000D0A2053445F57616974526571
:1046D00061644F7065726174696F6E2053746174A8
:1046E00075733D25642000000D0A2053445F457218
:1046F00061736554657374206661696C656400005C
:104700000D0A2053445F45726173655465737420CC
:1047100073756363657373002DE9F04FDFF85CB266
:104720000021DFF85C928BF80010DBF8047080F851
:104730005670BBF80820A0F85420D9F80020140EB9
:10474000A5090570C4F38305457004F00304847063
:10475000140CC470140A04714271D9F80460320E4A
:104760001201C280C388C6F3074243EA1213C38012
:1047700002F00F020272C6F30722D3094372C2F39A
:1047800080138372C2F34013C372C2F30013037326
:1047900041734B464FF0010A9D682C0EC5F3074349
:1047A000C5F3072C27B1012F02D0022F3AD051E0D8
:1047B0009207120D0261F2B2066946EA82020261B4
:1047C000026942EA94120261C4F3C202027504F063
:1047D000070242755A098275C3F38202C2759A07AD
:1047E000520F0276037E624643EAD21303760469CF
:1047F000067E641CB61C0AFA06F6A4FB06784FEA8D
:10480000E67C01FB068604FB0C64067A0AFA06F3D2
:10481000A7FB036C036504FB03C307FB0133C0E97B
:10482000126317E0B206920A0261026942EA0422A8
:10483000026102691A430261036962465B1C41F12D
:104840000004E40444EA5334DB04C0E912344FF4B6
:1048500000730365C2F3801343769206520E82768C
:10486000847EEAB244EAD214847602F07F02C276F1
:10487000D9F80C301A0ED4090477C2F341144477E6
:10488000C2F3820484779207120FC277C47FC3F306
:10489000074244EA9214C477C2F3401400F8204F50
:1048A000417002F001018170C3F30721CA09C2708F
:1048B000C1F380120271C1F340124271C1F30012C0
:1048C0008271C1F38102C27101F003010172C3F36D
:1048D00046014172534680F80AA0294A10321168F5
:1048E0000C0E0473C1F307442402C481C589C1F3CB
:1048F00007242543C58109060161516805690C0E2D
:1049000045EA044404610569C1F3074445EA042407
:1049100004610569C1F307242543056101759168A8
:104920000C0E4475C1F30744240684618569C1F304
:10493000072445EA044484618469C9B244EA012138
:104940008161D168846944EA11648461047FC1F3A0
:10495000074244EA121404771207120DC283C48B73
:10496000C1F307221443C483C1F3460180F8201029
:1049700080F821309BF80000BDE8F08FDC000020BB
:10498000B8B7002008B500200090FFF767FD0128A8
:1049900003D1684600F04EFB08B1FF2008BD009827
:1049A000C0F3432008BD10B5FFF7ECFF042803D087
:1049B000FF2803D0012010BD002010BD022010BD33
:1049C00070B5174C00252570FFF7D2FC00F044F9B4
:1049D0002070002823D100F027F8207000281ED175
:1049E000104801210175056045608560C56005615D
:1049F000FFF7FEFC0B485838FFF78EFE207068B9B1
:104A000008485838B0F85400000400F0F9FA207053
:104A100020B94FF40060FFF733FD2070C0B270BDC5
:104A2000DC00002040B800202DE9F8433C4C012078
:104A3000ADF8000000262670FFF7BCFC80B360686C
:104A4000042868D0374D4FF0C0090220C5F80890FF
:104A5000C5E900604FF48068C5E903682846FFF7A0
:104A6000E3FCFCF78FF92070002856D1FFF7AAFC71
:104A7000A5F1900738600420FFF7A4FC78600820B7
:104A8000FFF7A0FCB8600C20FFF79CFCF8606068A2
:104A900048B1012807D0062805D0022803D014E029
:104AA000FFE7252038E00320C5E9006005F1080193
:104AB0004020A1E841011B48FFF7B6FC69460320EE
:104AC000FCF77EF92070002827D16068042822D0E6
:104AD000BDF80000A060000428600920C5E90109B4
:104AE000C5E903680F48FFF79FFCFCF74BF92070FE
:104AF000002812D1FFF766FC0A4DA03D2860042073
:104B0000FFF760FC68600820FFF75CFCA8600C20E1
:104B1000FFF758FCE86030462070BDE8F8830000DD
:104B2000DC00002058B8002070B505468CB00C465B
:104B30001148FCF74FFC114E00213046FCF756FCA3
:104B40000F48CDE900050020A108CDE90201802130
:104B5000CDE90401890006918900CDE9071089009B
:104B6000CDE9091069463046FCF7BEFC012130460C
:104B7000FCF73CFC0CB070BD00F000104404024097
:104B80008080014070B505468CB00C461248FCF799
:104B900021FC124E00213046FCF728FC1048CDE9DC
:104BA000000510200290A008039000208021CDE98C
:104BB0000401890006918900CDE907108900CDE93B
:104BC000091069463046FCF78FFC01213046FCF79E
:104BD0000DFC0CB070BD000000F000104404024059
:104BE0008080014038B501213020FFF711F84FF4E3
:104BF0007060ADF8000003208DF802001820144CFE
:104C00008DF8030069462046FDF7F8FC0420ADF856
:104C1000000069460F48FDF7F1FCA014ADF8000054
:104C200069462046FDF7EAFC8020ADF800004820E8
:104C30008DF8030069462046FDF7E0FC012188025B
:104C4000FEF7CEFF01210220FEF7CAFF38BD0000AB
:104C500000100140001401402DE9F05F4FF0000A00
:104C6000644D6548B22185F800A00175C0F800A028
:104C7000C0F804A0C0F808A0C0F80CA0D146564661
:104C8000C0F810A0FFF7B4FB0320FFF7E1FB012001
:104C9000FFF74CFB584C4FF4806B183420462660CD
:104CA0006660A660C4E9036BFFF7BEFB2E704FF48D
:104CB000803701E07F1E41D08020FFF771FB002884
:104CC000F8D0D7B340F2FF50FFF724FB28782870C4
:104CD00000286ED14FF4D570206008204FF04008B6
:104CE000C4E901084448C4E9036B5F461830FFF784
:104CF0009BFBFCF7A5F8287018B33720C4F8088090
:104D0000C4E900603C48C4E903671830FFF78CFB36
:104D10003720FBF7BBFF2870B3463046372684E8C0
:104D20004101C4E9030734481830FFF77DFB372001
:104D3000FBF7ACFF287098B359E0FFE70320287019
:104D4000C5E701204FF080496860E5E73720C4E9F6
:104D50000060C4F810B02848C4E90276D84618307C
:104D6000FFF762FB3720FBF791FF287000BB234958
:104D700049EA010020602920C4E901071E48C4E96E
:104D800003681830FFF750FB1D492E70486B10F078
:104D9000450FFBD0400704D503202870042002E013
:104DA00011E040F2FF50FFF7B5FA2878287010B1F3
:104DB000C0B2BDE8F09F0020FFF704FBC10F0AF16D
:104DC000010A04D007E05E46BB464746BEE74FF601
:104DD000FF718A45BAD34FF6FF72924502D31B206A
:104DE0002870E6E710F0804F01D002206860287834
:104DF000DFE70000DC00002040B800200000108049
:104E00000080014070B50D4CE1680020012907D1F8
:104E10000B49886040F24C40C8600C20FBF736FF1D
:104E200060704FF480752846FFF77AFA0021284613
:104E3000FFF7D2FA01202061607870BDDC0000200D
:104E4000008001402DE9F05FDFF8C48000251646A0
:104E500088F800500F468146444688F80150C8F84B
:104E60001050C8F80C502B48C562012140F22A307E
:104E7000FFF7B2FA0120FFF75FFA31464846FFF725
:104E800053FE6068022801D106027F0A224C4FF0CF
:104E9000400B1020C4F808B0C4E900604FF4806AE9
:104EA000C4E9035AA9462046FFF7BEFA1020FBF7D3
:104EB000EDFE454688F80000002826D1411E04F189
:104EC0001400C0E90016902181600221C0E9031995
:104ED00001214E464161FFF735FA1120C4F808B0B0
:104EE000C4E90070C4E9036A2046FFF79DFA112067
:104EF000FBF7CCFE2870002807D100F011F900BFA5
:104F0000FFF751FD0028FBD12878BDE8F09F000095
:104F1000DC0000200080014058B800202DE9F05F3F
:104F2000DFF8D0A04FF000081D468AF80080164632
:104F30000F46814654468AF80180CAF81080012144
:104F4000CAF80C102C49C1F82C80012140F22A30FB
:104F5000FFF742FA05FB06F14846FFF7E5FD0120A1
:104F6000FFF7EAF96068022801D106027F0A234CA4
:104F7000102004F10801C4E900604020C1464FF44C
:104F8000806BA1E8010A2046FFF74EFA1020FBF7DC
:104F90007DFED0468AF80000002828D1411E04F189
:104FA00014007543C0E90015902181600221C0E919
:104FB000031901214D464161FFF7C4F91220C4E9EC
:104FC000007008344020A4E821080C48FFF72CFAB0
:104FD0001220FBF75BFE444688F80000002806D14B
:104FE00000F09EF8FFF7DFFC0028FBD12078BDE839
:104FF000F09F0000DC0000200080014058B8002035
:1050000010B50A4C0A490022227008600720486047
:105010004020C1E90202000108610846FFF704FAD6
:105020000720FBF733FE207010BD0000DC000020DD
:1050300058B8002070B5104C4FF0000105002170E9
:1050400017D0208902040D4802600D2242604022E0
:10505000C0E9022111010161FFF7E6F90D20FBF71C
:1050600015FE2070002803D1FFF7ACF928602078E6
:1050700070BD2620207070BDDC00002058B80020D4
:105080002DE9F0410646174800214FF400754154C0
:10509000491CA942FBD32A4631461348FFF7D2FEEA
:1050A000124C07465A22607029460F48FBF76EF8EB
:1050B0006FB92A4631460B4800F0A2F8607030B94B
:1050C0002A4631460848FFF7BDFE607010B1012046
:1050D000BDE8F0812A46BDE8F04103490148FBF7ED
:1050E00067BC0000C4460020C45A00200000002015
:1050F00010B5094C0948002121700C22C0E90012AA
:105100004022C0E9022111010161FFF78DF90C2055
:10511000FBF7BCFD207010BDDC00002058B800205B
:1051200070B50026184C751E2846267002E000BF98
:10513000A0F10100616929B9216919B9617809B93A
:105140000028F5D16661114802E000BFA5F1010514
:10515000416B890401D5002DF8D1E068012803D105
:10516000FFF7C6FF2070E6602078054301D10420D8
:10517000207040F2FF50FFF7CDF8607808B16078FA
:1051800070BD207870BD0000DC0000200080014070
:1051900070B50026184C751E2846267002E000BF28
:1051A000A0F10100616929B9216919B9617809B9CA
:1051B0000028F5D16661114802E000BFA5F10105A4
:1051C000416BC90401D5002DF8D1E068012803D155
:1051D000FFF78EFF2070E6602078054301D10420A0
:1051E000207040F2FF50FFF795F8607808B16078C2
:1051F00070BD207870BD0000DC0000200080014000
:105200002DE9F05FDFF8C0900025164689F80050C0
:105210000F4680464C4689F80150C9F81050C9F82D
:105220000C502A48C562012140F22A30FFF7D4F819
:1052300031464046FFF7A6FC0120FFF77DF8606885
:10524000022801D106027F0A214C4FF0400B1020AA
:10525000C4F808B0C4E900604FF48068C4E903589A
:10526000AA462046FFF7E0F81020FBF70FFD4D4659
:1052700089F80000002824D11820C4F808B0C4E937
:105280000070C4E903A857462046FFF7CDF8182060
:10529000FBF7FCFC2870002813D1411E04F1140018
:1052A000C0E900169021C0E902170121C0E904718C
:1052B000FFF748F8FFF76CFFFFF775FB0028FBD1FD
:1052C0002878BDE8F09F0000DC000020008001404D
:1052D00058B800202DE9F05FDFF82C914FF000085E
:1052E0001C4689F8008016460F4682464D4689F8CE
:1052F0000180C9F810800121C9F80C104349C1F898
:105300002C80012140F22A30FFF766F804FB06F1F9
:105310005046FFF737FC0120FFF70EF868680228B7
:1053200001D106027F0A3A4D4FF0400B1020C5F81C
:1053300008B0C5E900608001C5E90380C24628467F
:10534000FFF772F81020FBF7A1FC89F80000002895
:1053500057D1B9F80800C846010428462960C0F8AA
:105360000CA03721C0E9011BA94655464FF4806ABD
:105370002748C9F810A0FFF757F83720FBF786FC3D
:1053800088F8000000283CD148461721C0E90041B8
:105390004021C9E90215AB461D48C9F810A0FFF726
:1053A00043F81720FBF772FC454688F800000028F8
:1053B00027D148461921C0E900714021C9E9021BE3
:1053C0005F461348C9F810A0FFF72EF81920FBF725
:1053D0005DFC2870002814D1411E0D487443143020
:1053E000C0E900149021C0E902170121C0E904714D
:1053F000FEF7A8FFFFF7CCFEFFF7D5FA0028FBD198
:105400002878BDE8F09F0000DC000020008001400B
:1054100058B800200029018802D041F0400101E085
:1054200021F040010180704710B5FEF71FF8FDF72D
:1054300039FFFDF787FFBDE81040FDF7ADBF02461D
:10544000002012890A4200D00120704781817047F4
:1054500030B502884C8802F441530A88CD88224333
:105460008C882C4322430C8922434C8922438C890B
:105470002243CC8922431A430280828B22F40062A9
:105480008283098A018230BD08B501214FF4C470BE
:10549000FEF7BEFB4FF4E070ADF8000001208DF880
:1054A000020010208DF8030069460948FDF7A6F8B0
:1054B0004FF40040ADF8000069460648FDF79EF83D
:1054C0000420ADF8000069460348FDF797F808BDD1
:1054D000001C014000200140000C01401E2000E0A3
:1054E00000BF0100A0F10100C0B2F9D17047000077
:1054F0002DE9F0410E4B4FF4004504465D610D4F20
:1055000000229E1507F1040804FA02F0000601D5F6
:105510003E6001E0C8F80060FFF7E0FF1D61FFF7A3
:10552000DDFF5D61521CD2B2082AEDD3BDE8F081E7
:1055300000200140101C014010B5054980240C607A
:1055400040220A60FFF7D4FF0148001F046010BD2D
:10555000141C014030B5054980240C60034D4021E6
:105560002D1F2960FFF7C4FF2C6030BD141C0140C3
:1055700000B587B001A8FEF75FFB02984FF47A717F
:10558000B0FBF1F0B0F1807F0CD220F07F414FF002
:10559000E020491E4161164AF0211170002181610D
:1055A000072101610120002308224FF4E13100901E
:1055B00001F0D0FBFDF7D8F903F0D8FBFCF73EFC77
:1055C00003F03EF803F09DFC00F096FBFDF7E2FAD5
:1055D000FCF71CFC00F000FCFDF7EEFAFFF702FB05
:1055E000FDF74CFE0120FBF7C7F907B000BD000036
:1055F00023ED00E07047000001A001F03BBE000079
:10560000506F776572206F66662E2E2E00000000A8
:1056100070B5074C054602212046FFF710FF002811
:10562000F9D029462046BDE87040FFF70FBF0000C3
:10563000003C00402DE9F05F81464148414900248B
:105640000078DFF804B1C0EBC00000EB8000084434
:1056500041F67A5146183E21A0462746DFF8ECA0D5
:10566000CBF8001053E035787E2D34D0A02D35D303
:10567000DBF80000FAF756FE4FF03332344BFAF7FE
:10568000AAFDFAF75CFECBF8000016F8010FA13D69
:10569000A13881B2A8B2032801D90B3880B2C0EB7F
:1056A000001202EB401001EB400080B200EBC000A2
:1056B0004FF4832101EBC00040F000504AF8240071
:1056C000B8F1000F04D040F080404AF82400A41C38
:1056D000641C7F1C16E0B8F1000F1DD0DBF8000041
:1056E000401CCBF80000202D01D3203DADB26A0054
:1056F0004AF82420B8F1000F04D042F080414AF863
:105700002410641C641C0020761C80467F1C4F45BE
:1057100004DA202CA7DB03E00120F5E7202C00DBD6
:1057200020240C480078800705D5DAF8001041F0F5
:105730000041CAF8001008480470BDE8F09F00005E
:1057400068010020001300206802002090BC0020A7
:1057500033332440483E00207E010020012804D03D
:10576000022801D10349086070474FF400700249D4
:10577000F9E7000010180140100C01400CB50021A1
:10578000264801910091026842F4803202604FF491
:10579000A063026802F400320092019A521C019246
:1057A000009A12B9019A9A42F3D10268920333D552
:1057B000012100911A490A6842F010020A600A6841
:1057C00022F007020A600A6842F002020A60416899
:1057D000416041684160416841F4806141604168D5
:1057E00021F47C114160416841F4E8114160016895
:1057F00041F08071016001688901FCD5416821F0A8
:1058000003014160416841F0020141604168C1F318
:1058100081010229FAD10CBD00910CBD001002409B
:1058200000200240054904480978405C044900F022
:105830007F000880704700005E0200208A0100207F
:105840000000046870B50C460546FFF7E1FE074806
:10585000415D074802880A4402800648E20830F8A1
:105860001230194420F8121070BD0000DE740108D7
:1058700080010020B0DE002005480021054A0160BB
:105880008180022111700721017038214170704719
:105890005E0200206402002006490A684FF0804141
:1058A000904201D28A8500E08885088840F0010096
:1058B000088070476802002030B5154C1021216027
:1058C00000BF00BF00BF1248001F01601149012541
:1058D0000988D1B1FDF7AEFE0F48104A0178127861
:1058E00091420FD300210170FFF79CFF0C480D4936
:1058F000008808800B482C38018841F001010180A4
:10590000256030BDFF21017030BD056030BD000055
:10591000140C0140800100208A0100206402002054
:10592000740100202C04004030B5164C94F900108E
:1059300000291FDC144900230B8014490B60144913
:105940004A7822F002024A70124A10700878000762
:1059500005D41149042008615020FCF77FF84FF46A
:10596000FA60FFF799FF0D4803700D48038001208E
:10597000207030BD4FF08040018841F0010101806E
:1059800030BD000078010020880100208401002043
:1059900054020020483E0020001001407901002000
:1059A0007A01002070B5224C611E22780B789A4251
:1059B0003CD0891C097878B3B2B3551EEDB2AB4226
:1059C0002AD0C2EBC20202EB82031A4A41F6785691
:1059D0001344002199552378761EC3EBC30303EBD0
:1059E000830313441F2199552378B61CC3EBC303CB
:1059F00003EB83031344042199552178C1EBC101C2
:105A000001EB81011144721C8B18014620221846BB
:105A1000FAF7CEFB25700C21074AFF201070BDE875
:105A200070400846FFF780BF6425C8E770BD0000DE
:105A3000473E0020001300207801002000B54FF4FD
:105A4000FA60FFF729FF0349002008800249087027
:105A500000BD00007A0100207801002010B50E483A
:105A6000012404604FF0D04100230B80022101602B
:105A70004FF4FA60FFF710FF084904204861084816
:105A80000380084803700848017841F04001017024
:105A90000648048010BD0000100C014000100140B9
:105AA0007A010020790100205402002088010020A2
:105AB0000C48416809B1491E41600B4A1188491CD4
:105AC00011800168491C016008480188002908D03C
:105AD000491C89B247F230520180914201D900211C
