:020000040800F2
:1000000068E100204501000859970108D153010813
:10001000519201086D290008D54B0308000000002B
:1000200000000000000000000000000065E302087E
:10003000C99B00080000000071BF0108611103089E
:100040005F0100085F0100085F0100085F01000810
:100050005F0100085F0100085F0100085F01000800
:1000600005DD00085F0100085F0100085F0100086E
:100070005F0100085F0100085F0100085F010008E0
:100080005F0100085F0100085F0100085F010008D0
:10009000A94103085F0100085F0100083DDD000879
:1000A0005F0100085F0100085F0100085F010008B0
:1000B00079120308311403085F0100085F0100088A
:1000C0005F0100085F0100085F0100085F01000890
:1000D0005F010008293A0308F93A0308E93B0308DD
:1000E0005F0100085F0100082D3F03085F01000861
:1000F0005F0100085F0100085F0100085F01000860
:100100005F01000809D702085F0100085F010008CD
:100110005F0100085F01000841150308711603081C
:100120005F0100085F0100085F0100085F0100082F
:10013000DFF80CD000F0F0FA00480047957603088D
:1001400068E100200648804706480047FEE7FEE7D2
:10015000FEE7FEE7FEE7FEE7FEE7FEE7FEE7FEE777
:10016000E9110308310100082DE9F05F0546002080
:1001700092469B4688460646814640241BE0284618
:1001800041464746224600F0C6F853465A46C01A32
:10019000914110D311461846224600F0ADF82D1AB1
:1001A00067EB01084F4622460120002100F0A4F829
:1001B00017EB00094E41201EA4F10104DFDC484684
:1001C00031462A464346BDE8F09F40EA01039B07BB
:1001D00003D009E008C9121F08C0042AFAD203E0BC
:1001E00011F8013B00F8013B521EF9D27047D2B220
:1001F00001E000F8012B491EFBD270470022F6E710
:1002000010B513460A4604461946FFF7F0FF20468C
:1002100010BD10B5044604E00B7800F8013B03B1B3
:10022000491C521EF8D2204610BDCAB2401E10F81A
:10023000011F8A4202D00029F9D100207047421CD8
:1002400010F8011B0029FBD1801A704710B500225D
:1002500000E0521C835C8C5CA34201D1002BF8D1DE
:10026000D8B2E1B2401A10BD30B5044600200346B2
:1002700000E05B1C934203D2E05CCD5C401BF8D0F5
:1002800030BD034611F8012B00F8012B002AF9D1EB
:100290001846704730B505460020034600E05B1C59
:1002A000934205D2EC5CC85C201A01D1002CF6D137
:1002B00030BD70B5064635F0F5FB046805460A22E8
:1002C0000021304600F037F82C6070BD30B50B4689
:1002D000014600202022012409E021FA02F59D4276
:1002E00005D303FA02F5491B04FA02F52844151E4A
:1002F000A2F10102F1DC30BD202A04DB203A00FA31
:1003000002F1002070479140C2F1200320FA03F36C
:10031000194390407047202A04DB203A21FA02F06A
:100320000021704721FA02F3D040C2F1200291402F
:100330000843194670472DE9F04791460F4680461D
:100340000446002614F8015B2DB100F009FA00689C
:10035000405DC007F6D12B2D02D02D2D18D0641E84
:100360004A463946204600F0FFF927B13968A142D4
:1003700001D1C7F8008071054FF002040BD540424F
:10038000002803DD35F08EFB0460A007BDE8F08790
:1003900046F48066E4E70028F8DA35F083FB046071
:1003A0006FF00040F2E72DE9FE4F804681EA03003E
:1003B000C00F0C46009021F0004123F00045B8EB3F
:1003C0000200A94105D24046214690461C460B46F4
:1003D000024623F00040104347D0270DC7F30A0020
:1003E000C3F30A510290401A019040286BDAC3F31C
:1003F000130040F4801B0098924620B10023D2EBFA
:10040000030A63EB0B0B01985946C0F140025046BA
:10041000FFF772FF06460D4650465946019A00F016
:100420008DF910EB08006141002487EA115284EA3B
:10043000E7731A4340D0009A62B3019A012A4FEA47
:10044000075215DC001B61EB02014FF0004202EA8B
:100450000752CDE90042001C41F5801132462B467F
:1004600000F0E0F903B0BDE8F08F40462146F9E71F
:10047000001B61EB0201001C41F5801300185B4179
:100480002018A2F5001747EB030140EAD570B61912
:100490006D4111E06D084FEA360645EAC0754FEA36
:1004A0000752001B61EB0201001C41F58011490855
:1004B0004FEA30000019514132462B4603B0BDE8E7
:1004C000F04F00F0A0B90098012240000023D0EBCB
:1004D000020263EBE073009821464FEAE074B8EB48
:1004E000000061EB0401E9E783F000435BE781F082
:1004F000004158E72DE9FE4F81EA030404F000446F
:1005000021F0004100944FF0000B23F0004350EA2B
:1005100001045ED052EA03045BD0C3F30A54C1F372
:100520000A552C44A4F2F3340194A0FB0254C1F305
:10053000130141F48011C3F3130343F4801301FB4F
:10054000024400FB034E840A970A44EA815447EAB6
:100550008357A4FB076802958D0A05FB07854FEAC0
:10056000932C04FB0C542705029D4FEA065847EADA
:100570001637B5EB08056EEB070C870E920E47EAAF
:10058000811742EA8312A7FB0201B6EB0B0164EB71
:1005900000042B0D43EA0C335E1844EB1C50DA4682
:1005A0005146E7FB0201C5F313044FEA0B3343EA5C
:1005B00014534FEA0432019C43EA0603A4F10C04ED
:1005C0000294009CCDE900B400F02CF903B0BDE822
:1005D000F08F00200146F9E72DE9F04D81EA030490
:1005E00004F0004B21F0004514464FF0000A23F0C0
:1005F000004150EA050220D054EA01021DD0C5F3A3
:100600000A570246C5F31303C1F31300C1F30A5698
:1006100040F4801543F48013A7EB0608101BD64660
:1006200008F2FD3873EB050002D308F1010801E080
:1006300092185B41B8F1000F03DA00200146BDE8D3
:10064000F08D00204FF48011064684460EE0171B03
:1006500073EB050705D3121B63EB050306434CEA56
:10066000010C49084FEA300092185B4150EA01073B
:10067000EDD152EA030012D082EA040083EA0501B8
:10068000084305D0101BAB4106D20122002306E02F
:1006900000224FF0004302E06FF0010253101AEB0A
:1006A00006004CEB085110EB0A0041EB0B01BDE8D2
:1006B000F04D00F0A8B8C1F30A52C1F3130140F2A3
:1006C000FF3341F480119A4202DA0020014670475C
:1006D00040F233439A42A2F2334202DC5242FFF725
:1006E0001ABEFFF709BE000030B5041E71F1000408
:1006F00004DB4FF00044404264EB0101141E73F12F
:10070000000405DB1C464FF00043524263EB040338
:10071000994208BF904230BD064C074D06E0E068A4
:1007200040F0010394E8070098471034AC42F6D338
:10073000FFF702FD34F1040854F10408202A06DB17
:10074000CB17203A41FA02F043EAE07306E041FA9F
:1007500002F3D040C2F1200291400843194670478D
:1007600000487047FCD004082DE9F05F824600780D
:10077000002715468B460AF10104B946302801D0FE
:100780009DB113E014F8010B0127782803D05828F5
:1007900001D045B10AE00DB1102D07D10027102579
:1007A00014F8010B02E0082500E00A250026B046F7
:1007B0000EE005FB080005FB06F1012701EB1046E2
:1007C0001FFA80F8B6F5803F00D3B94614F8010B44
:1007D000294600F075F80028EBDABBF1000F05D0D0
:1007E0000FB1641E00E05446CBF80040B9F1000F91
:1007F00006D035F057F902210160C81EBDE8F09F10
:1008000048EA0640FAE710B5141E73F1000408DA4E
:10081000401C41F1000192185B411A4301D120F0C4
:10082000010010BD2DE9F04D92469B4611B1B1FA81
:1008300081F202E0B0FA80F220329046FFF75CFDD0
:1008400004460F4640EA0A0041EA0B0153465A4665
:10085000084313D0114653EA010019D0C8F14002F1
:100860005046FFF758FD05460E465046594642464B
:10087000FFF742FD084305D0012004E02046394639
:10088000BDE8F08D0020054346EAE0762C4337436F
:100890000A986305E40AA0EB08000022FD0A44EA76
:1008A00047540A3002D500200146E9E70105101936
:1008B0006941DDE9084500196941BDE8F04DA2E74D
:1008C0003A2800D2303820F02002412A01D3A2F188
:1008D0003700884201D34FF0FF30704770B58C1855
:1008E00010F8015B15F0070301D110F8013B2A1144
:1008F00006D110F8012B03E010F8016B01F8016B31
:100900005B1EF9D12B0705D40023521E0DD401F82C
:10091000013BFAE710F8013BCB1A921C03E013F8F5
:10092000015B01F8015B521EF9D5A142D8D300202A
:1009300070BD000000B591B001214FF404702AF0A1
:1009400071FA012108462AF04DFA4FF440402AF08E
:100950003DFA264808F092FD25480190254802906E
:100960000020039003200490002005908020069032
:1009700040000790800008902020099000020A9013
:1009800000200B9001A9194808F01EFE012117480C
:1009900008F068FD00200C9001208DF834008DF8DF
:1009A00035004FF460200E9000200F9003208DF84A
:1009B00040000CA90E484C3800F034F807230122FF
:1009C0000E210B484C3800F055F8072302220F2166
:1009D00007484C3800F04EF803231A460A21044811
:1009E0004C3800F047F811B000BD0000080002408C
:1009F0004C2401408000002021B1826842F00102B5
:100A0000826003E0826822F001028260704721B1B7
:100A1000826842F48072826003E0826822F480720D
:100A20008260704730B502460020002350680F4CAA
:100A300020400D790C6844EA0524204350609068FA
:100A40000B4C2040D1E902542C434D7944EA450433
:100A500020439060D06A20F470000C7C641EE4B2E5
:100A6000234340EA0350D06230BD0000FFFEF0FF98
:100A7000FDF7F1FFF0B504460D4600200021092DD9
:100A800011DDE068A5F10A0606EB4607072606FA1F
:100A900007F18843A5F10A0606EB460603FA06F1BC
:100AA0000843E0600CE0206905EB4507072606FADD
:100AB00007F1884305EB450603FA06F10843206178
:100AC000072A0FDA606B561E06EB86071F2606FA0A
:100AD00007F18843561E06EB860605FA06F1084321
:100AE000606322E00D2A0FDA206BD61F06EB860723
:100AF0001F2606FA07F18843D61F06EB860605FA7D
:100B000006F10843206310E0E06AA2F10D0606EB4F
:100B100086071F2606FA07F18843A2F10D0606EBA9
:100B2000860605FA06F10843E062F0BD21B182684D
:100B300042F4A002826003E0826822F4A002826094
:100B400070470146302904DB392902DC01F00F002F
:100B50007047412901DB462903DD612905DB662950
:100B600003DC01F00F000930F2E70020F0E700009D
:100B70002DE9F04105460E46287800F080004D49E9
:100B80000870307800F080004B490870287800F039
:100B900007004A490870307800F00700484908709B
:100BA00011214848FFF72AFB11214748FFF726FB90
:100BB0004448D5F801100160D5F80510416042485D
:100BC000D6F801100160D6F8051041603B48007866
:100BD0003B49097888420FDD07E039480078401C1E
:100BE00037490870384800F0E7FF34480078344946
:100BF00009788842F1DC14E03048007830490978FF
:100C000088420EDA07E02D480078401C2B49087016
:100C10002C4800F0D1FF29480078294909788842FA
:100C2000F1DB072425E02748005D2749095D88425C
:100C300000DD20E02348005D2349095D884216DA83
:100C4000002409E01F48075D1F48005D1D49085545
:100C50001D480755601C04B2082CF3DB16480778C2
:100C600014480078144908701248077003E0601EA9
:100C700004B2002CD7DA00BF0E4800780E4909787C
:100C8000884202D100F024F801E02FF0C7FE0948A5
:100C900000780E49087007F0DDFE0C4800782870D7
:100CA00008480168C5F801104068C5F80500BDE8AE
:100CB000F081000003020020040200200502002051
:100CC00006020020792900208A2900200202002043
:100CD00070B500210024002030E01A4D2D5C05F095
:100CE0000F05184E365C361106EB860605EB4605F9
:100CF000EAB2154D2D5C05F00F05134E365C36112A
:100D000006EB860605EB4605EBB2D5182544E9B29D
:100D1000632904DDA1F16405E9B2012400E00024A7
:100D20000A2591FBF5F605FB16150A2691FBF6F64A
:100D300005EB0615034E3554451C28B21028CCDBB4
:100D400070BD0000792900208A29002010B511F01B
:100D50004BFC144890F8C20613490968084412492C
:100D6000086000200F4981F8590F15E00D4890F8F0
:100D7000591F00F2C46000EBC10100F63C300A6864
:100D800002634968416300F05BFA064890F8590F26
:100D9000401C044981F8590F024890F8590F062861
:100DA000E4DB10BDBC290020FC01002010B511F0CF
:100DB0002BFC144890F8F7061349096808441249B7
:100DC000086000200F4981F8590F15E00D4890F890
:100DD000591F00F2F96000EBC10100F607300A6804
:100DE00002634968416300F02BFA064890F8590FF6
:100DF000401C044981F8590F024890F8590F062801
:100E0000E4DB10BDBC290020FC01002010B519480E
:100E1000B0F87F1FB0F82907814229DA11F0BEFC33
:100E2000144890F82D0714490968084412490860CD
:100E30000020104981F8590F15E00E4890F8591F0D
:100E400000F2327000EBC10100F6CE200A680263A6
:100E50004968416300F0F4F9064890F8590F401CC6
:100E6000044981F8590F034890F8590F0628E4DB2C
:100E700010BD0000BC290020FC01002010B511F0BD
:100E8000EDFC144890F865071349096808441249B5
:100E9000086000200F4981F8590F15E00D4890F8BF
:100EA000591F00F2677000EBC10100F699200A6833
:100EB00002634968416300F0C3F9064890F8590F8E
:100EC000401C044981F8590F024890F8590F062830
:100ED000E4DB10BDBC290020FC01002010B519483E
:100EE00090F8321F90F89707814229DA11F0C6FC7A
:100EF000144890F89A071449096808441249086090
:100F00000020104981F8590F15E00E4890F8591F3C
:100F100000F29C7000EBC10100F664200A680263D5
:100F20004968416300F08CF9064890F8590F401C5D
:100F3000044981F8590F034890F8590F0628E4DB5B
:100F400010BD0000BC290020FC01002010B52B487A
:100F5000D0F8A1042A4908600020284981F8590FD7
:100F600015E0264890F8591F00F28F6000EBC10190
:100F700000F671300A6802634968416300F060F965
:100F80001E4890F8590F401C1C4981F8590F1B4806
:100F900090F8590F0628E4DB1848B0F8811FB0F824
:100FA000CC07814229DA11F0DBFC144890F8D00715
:100FB0001349096808441249086000200F4981F864
:100FC000590F15E00D4890F8591F00F2D27000EB50
:100FD000C10100F62E200A6802634968416300F0EF
:100FE0002FF9064890F8590F401C044981F8590F11
:100FF000024890F8590F0628E4DB10BDBC290020F8
:10100000FC0100201CB52A48B0F8FD4E294813F019
:101010000BFF284BDA78997818880CF087FF26495F
:101020004881B4F5006F3DDA4FF4004101EB041044
:10103000214A0A32102135F09FFC1F490C80002004
:101040004880009001904FF4804101EBC4006A4653
:10105000082135F091FC1648B0F8FD0E401C81B215
:101060001348A0F8FD1EC4F3090413480088B0F526
:10107000806F04DA10480089B0F5804F09D00E481F
:101080000088B0F5806F11DB0B480089B0F5C04FC8
:101090000CD109481A3000EBC40000990160019995
:1010A000416003E05A20024981F8330F1CBD000063
:1010B000BC29002080590020EB65002010B512F0FB
:1010C000CBFB144890F808081349096808441249F2
:1010D000086000200F4981F8590F15E00D4890F87D
:1010E000591F00F61A0000EBC10100F6E6100A686D
:1010F00002634968416300F0A3F8064890F8590F6D
:10110000401C044981F8590F024890F8590F0628ED
:10111000E4DB10BDBC290020FC01002010B54FF01D
:10112000FF3012F063FC144890F81908134909685D
:1011300008441249086000200F4981F8590F15E052
:101140000D4890F8591F00F64A0000EBC10100F667
:10115000B6100A6802634968416300F071F80648F6
:1011600090F8590F401C044981F8590F024890F833
:10117000590F0628E4DB10BDBC290020FC0100202B
:1011800010B512F063FC144890F880081349096800
:1011900008441249086000200F4981F8590F15E0F2
:1011A0000D4890F8591F00F6870000EBC10100F6CA
:1011B00079100A6802634968416300F041F8064803
:1011C00090F8590F401C044981F8590F024890F8D3
:1011D000590F0628E4DB10BDBC290020FC010020CB
:1011E00010B512F0B9FC144890F8BA081349096810
:1011F00008441249086000200F4981F8590F15E092
:101200000D4890F8591F00F6BC0000EBC10100F634
:1012100044100A6802634968416300F011F8064807
:1012200090F8590F401C044981F8590F024890F872
:10123000590F0628E4DB10BDBC290020FC0100206A
:1012400070B5664890F8440F00B170BD644890F8DE
:10125000300200B9F9E76348407800B9F5E75F4824
:1012600090F84C0F00B1F0E700245D4890F8300290
:1012700000F0010018B15B484078204484B258481F
:1012800090F8300200F0020018B15648407820442F
:1012900084B2534890F8300200F0040018B151486D
:1012A0004078204484B24E4890F8300200F00800A4
:1012B00018B14C484078204484B22546474890F8FD
:1012C000590F06285CD2DFE800F003061B30455AB0
:1012D0000024002555E04148B0F82D0500B9B4E7D9
:1012E0003E48B0F82D053D49B1F87B1F401A6843D0
:1012F00085B23A48B0F87B0F401E604384B240E0AC
:10130000364890F8560900B99FE7344890F85609D6
:10131000324991F8661F401A401E684385B22F4833
:1013200090F8660F604384B22BE02C4890F8870950
:1013300000B98AE7294890F88709284991F82F1FB2
:10134000401A401E684385B2244890F82F0F60432E
:1013500084B216E0214890F8880900B975E71F4863
:1013600090F888091D4991F8511F401A401E6843A2
:1013700085B21A4890F8510F604384B201E064E7E7
:1013800000BF00BF1848006820441749086014488F
:1013900090F8300200F0010008B100F0F9F81048B0
:1013A00090F8300200F0020008B100F0F1F80C48AB
:1013B00090F8300200F0040008B100F0E9F80848A5
:1013C00090F8300200F0080008B100F0E1F806489B
:1013D000006828440449086000BF36E7BC290020A3
:1013E000BC390020EC3B0020FC0100203EB5184831
:1013F00090F83A0F58BB164890F8370F022826D0BD
:10140000134890F8440F10BB114890F84A0F08B1E8
:10141000032400E000240F48016800914168019115
:10142000007A8DF808000C4820440188ADF80110BE
:1014300080788DF8030009496846FFF799FB064854
:101440002044BDF8011001809DF8031081703EBD5D
:10145000BC2900206CBA0308C938002075BA0308FB
:1014600070B504460126184890F8620F44401648AB
:1014700090F8630F444000250EE004EA060038B1FE
:1014800005EBC501114A8818A2F1A201FFF770FB14
:101490007006060E681CC5B2082DEEDB0B49A2399A
:1014A00001F18700FFF764FB0849483901F1360074
:1014B000FFF75EFB044890F8630F034981F8640F5F
:1014C000002081F8630F70BDBC290020E84800208F
:1014D00010B513F089FC144890F8EF081349096817
:1014E00008441249086000200F4981F8590F15E09F
:1014F0000D4890F8591F00F6F10000EBC10100F60D
:101500000F100A68026349684163FFF799FE0648B5
:1015100090F8590F401C044981F8590F024890F87F
:10152000590F0628E4DB10BDBC290020FC01002077
:1015300010B513F069FC144890F8240913490968A0
:1015400008441249086000200F4981F8590F15E03E
:101550000D4890F8591F00F6261000EBC10100F667
:10156000DA000A68026349684163FFF769FE0648CA
:1015700090F8590F401C044981F8590F024890F81F
:10158000590F0628E4DB10BDBC290020FC01002017
:1015900010B5404890F84A0F60B13E4890F8590F96
:1015A000012807D03C4840783C49096808443B4939
:1015B000086010BD394804682AF026FE37480460E8
:1015C000344890F8260F38B134F0B6F932484078F4
:1015D0002044324908605AE02F48807890B12E4864
:1015E0002B30407A00F0080060B92A4890F8680F64
:1015F00040B9284890F8370F20B9294926482B30A0
:10160000FFF7B6FA2448C07868B123482B30407AF7
:1016100000F0830020492B31487201F68941A1F581
:101620004860FFF7A5FA1C48007920B11D49A1F6D2
:101630001D40FFF79DFA18484079A0B119497E3145
:10164000A1F692402FF02AFA13482B30C07E00F00A
:10165000800040B11048463013490A6802604A6869
:101660004260097A01720C48807928B10D491B311A
:10167000A1F62640FFF77CFA0748C07928B109494E
:101680001231A1F61440FFF773FA34F055F900BF98
:101690008FE70000BC290020EC3B0020FC0100206B
:1016A00075BA0308464800206CBA030838B50546E9
:1016B000681E00B2604908800020604908706049D7
:1016C00081F8330F81F8230F02205E490870012052
:1016D0005D4908701F205D49087047205849A1F8EE
:1016E000790F1F205A490873002005F021FF35F0BB
:1016F00097FB012035F002FF27F02EFF00BF0020EE
:1017000005F05CFD0090002002F018FCBDF8000020
:1017100000B9F4E7BDF80010C8B211F011F90446A1
:101720000E2C00D150E00C2C13D1454890F8710FCD
:1017300000F01000A8B1474890F8A80F00F0200072
:1017400018B1032005F03AFD02E0022005F036FD55
:10175000D5E734B9009816F025F9012005F0E8FE28
:10176000CDE7BDF8000000F47F40B0F5807F23D1C5
:10177000384890F8A80F00F02000E8B9BDF8000044
:10178000C0B2402817DABDF800002D4981F84F0F8C
:10179000084690F84F1F00F2214000EB41000188FD
:1017A0002D48A0F8821E02F065FC28B1254800787B
:1017B00000B909E0A3E7A2E7009816F0F3F827487C
:1017C0008079274908709AE700BF1D48D0F8710F4B
:1017D00020F488701A49C1F8710F032005F0EEFC5F
:1017E00035F01EFB43201649A1F8790FD1F8A50F5B
:1017F000082200210AF024F900201049087010493D
:1018000081F8330F124908730E4908700E490870A9
:101810000E49087005F08CFE42F210710E48A0F8D7
:10182000821E0020064981F8430F4E200D490870A2
:10183000002035F063FE38BDAA020020B40200206B
:10184000BC290020B1020020B2020020B302002017
:1018500070590020BC490020BC390020AC24002075
:10186000B5020020B6020020002070472DE9F041AB
:1018700006460C462EB92F4890F8200400F00F00C1
:1018800040B9002E53D02B4890F8200400F0F0000F
:1018900000284CD0277800202070264890F820049B
:1018A00000F00F051DB9234890F820040509012D0B
:1018B00006D0022D12D0032D1FD0042D35D128E0E3
:1018C000607800F00F00052803DB1B492046FFF776
:1018D0004FF9607800F0F000607026E06578002035
:1018E0006070742D04DD15492046FFF741F903E0CF
:1018F000242D01DD5020607017E0607800F0F005C5
:1019000000206070502D03DB0C492046FFF730F9B2
:101910000BE0607800F0F00500206070002D03DD22
:1019200006492046FFF724F900BF00BF2770BDE835
:10193000F0810000BC2900207EBA030887BA0308A2
:1019400010B504463048007830B920224F212F4886
:10195000FEF74DFC05F09FFF2D4890F8710F00F049
:101960001000002838D12F2C03D13020FFF7E8FFDA
:1019700030242E2C1AD1264890F8300FA0B901201F
:10198000234981F8300F2048007828BB30201F49B8
:1019900081F84D002E2081F84E00002081F84F0084
:1019A00002201949087010BD0020FCE7184890F883
:1019B000300F88B1302C0FDB392C0DDC144890F837
:1019C000300F032801DD0020EDE7114890F8300FBB
:1019D000401C0F4981F8300F0B48007828B14E2287
:1019E0000A49491C481EFEF7F0FB084880F84E40A3
:1019F0000020064981F84F0003480078401C024946
:101A0000087008460078CEE7B5020020895900200A
:101A1000BC29002010B501460A12CBB202F00F001B
:101A2000141104EB840400EB440000EBC00404EB4D
:101A300000104FF6FF7404EA800203F00F001C113F
:101A400004EB840400EB4400104480B210BD00009D
:101A50002DE9FF4782460C4691461D46DDE90D788B
:101A60000C9E134890F8E403012802D0022812D1FA
:101A700008E02B464A460FA150468DE8D00133F0CE
:101A8000EBFF11E04B46224612A150468DE8E001E3
:101A900033F0E2FF08E04B462A4606A150468DE8A7
:101AA000D00133F0D9FF00BF00BFBDE8FF870000C1
:101AB000BC290020253032782D253032782D323067
:101AC0002530327820253032783A253032783A2560
:101AD000303278003230253032782D253032782D72
:101AE0002530327820253032783A253032783A2540
:101AF000303278002DE9F047034600252846294674
:101B000006221CE09C5C992C16DC9C5C04F00F0403
:101B10009D5C2D1105EB850504EB45044FF0640C2D
:101B20004FF000098046A8FB0C6A01FB0CA700FBE4
:101B30000977A01947EBE471A2F1010422B2002A4F
:101B4000E0DABDE8F08730B502460C4600230621F6
:101B500013E0505C99280EDC505C00F00F00555CDF
:101B60002D1105EB850500EB450003EBC30505EBE7
:101B7000031500EB8503481E01B20029E9DA236052
:101B800098B230BD30B500240F30002101E0401E76
:101B9000491C102902DA0578002DF8D009E00578F3
:101BA0002D072A0E05782B091D1905701446401EB5
:101BB000491C1029F3DB30BD30B50024002109E0B9
:101BC00005782D072A0E05782B09151905701C4676
:101BD000401C491C1029F3DB30BD0146072005E0FD
:101BE0004A1C125C02B103E0421E10B20028F7DA70
:101BF00000BF421C10B200280BDD421E4B1C9A5C39
:101C00000F2A04DA0122C2EB400210B201E04200C6
:101C100010B20A7802F080020AB1421C10B270477A
:101C200008B5014600200090034800900098084441
:101C300000900098008808BD006C004008B50022A4
:101C40000092044A0092009A02440092009A1160A5
:101C500008BD0000006C004010B504461548B0F8FF
:101C6000A80F00F4007018BB44B113491348408D0D
:101C700008800846007840F0800008700D4890F811
:101C8000A80F00F00100C0F10800C0EBC00000EB9D
:101C900040020A4995390A48FEF797FA35F0C0F82C
:101CA0000448B0F8A80F40F400710248A0F8A81F3B
:101CB00010BD0000BC490020DC0100203C59002080
:101CC000BC24002010B50F4890F8FD0300F0070475
:101CD0001CB10C4890F8330F08B1002010BD611EF4
:101CE000C8B20CF0FFF8611EC8B205212CF0E9FD66
:101CF0000020054908700549087005490880012041
:101D0000ECE70000BC2900207901002078010020C8
:101D10007C01002070B5B34890F8FD0300F0070582
:101D20001DB1B04890F8330F08B1002070BDE7E056
:101D3000691EC8B202F0F8F830B1691EC8B229F0C5
:101D400055FC0446401C08B90020EFE7A64800886F
:101D5000B8BB0020A5490870A5490870A5490870BE
:101D6000012C10D0022C12D0062C02D0462C16D1F9
:101D700011E0691EC8B211212CF0A3FD02209E497A
:101D800008700020D2E702209B49087009E000207B
:101D90009949087005E001209749087001E000208A
:101DA000C4E700BF8F4890F8FD0300F00700924998
:101DB000097801F00F0140EA01118A4880F8FD130B
:101DC00030E0FFE78C48007802282BD1042C1FD18B
:101DD0008648007880F0030084490870084600783F
:101DE00048B986488078532805D18448008840F255
:101DF000012188420BD0691EC8B20CF073F855203F
:101E0000784981F8330F0020774908808EE778E021
:101E10007548B0F90000012804DD7448007860407E
:101E2000724908707248007838B16F48B0F9000004
:101E30006F490978401A012804DC70496A4AB2F9EE
:101E400000208C54302C01DB392C01DD2E2C0AD1E2
:101E50006848007818B96448007866490870624894
:101E600000786349087060480088401C00B25E49F1
:101E7000088061480078012819D1084600880A289E
:101E800015D15C48007818B908460078594908709F
:101E900055480078564908702E215348B0F9002063
:101EA0000088401C00B2504B1880544881544E4862
:101EB000B0F900001E2801DA0A2C03D100204A499B
:101EC000088033E70D2C1BD14B48007818B94B48DC
:101ED0000078022807D048480078012804D14748F4
:101EE0000078462800D10CE0691EC8B20BF0FAFF5A
:101EF00055203C4981F8330F00203B49088015E705
:101F000016E700BF002005F013FB691EC8B20BF0F6
:101F1000E9FF00203A49087033490880002600256F
:101F20003448007832490978884259DA31480478CF
:101F300032E04EB93148005B43F23001884201D0B3
:101F4000012000E00020064626B300212D48A0F81D
:101F5000841E2A48055D2E2D06D12348008818B915
:101F600001202149088008E01F48008828B11E4848
:101F70000088401C00B21C4908801B48B0F90000D2
:101F8000042807DC1F48A0F8825E0146B1F8820EE3
:101F900015F030F9601C04B2154800788442C8DDA1
:101FA000002011490880012000F0CCF90D48B0F85C
:101FB000790F432804D00B48B0F8790F45280FD18A
:101FC00000211048A0F8841E40F2D471A0F8821EAF
:101FD0000120044981F8340F22F022FA0120A5E6FD
:101FE0000020A3E6BC2900207C0100207A0100200B
:101FF00079010020780100207E010020902300203C
:10200000B8020020BC39002070B5844890F8FF0366
:1020100000F00705814890F8330F90B97F48B0F879
:10202000790F42280DD07D48B0F8790F462808D0A6
:102030007A48B0F8790F472805D1794800781F28E9
:1020400001D0002070BD002679E05DB1691EC8B2E4
:1020500001F06AFF30B1691EC8B229F0C7FA044620
:10206000401C08B90020EDE7E4B26E480168006842
:10207000401C6C4A10606C48445410460068FE28AE
:1020800003DB002011460860DCE70A2C11D006DCD7
:10209000022C09D0032C31D0092C40D12DE00D2C7D
:1020A0002AD0242C3BD100E000BF00205D4908600D
:1020B000C8E75C480068801E5B49085C0D280AD1AF
:1020C00058480068801E5749086000205649554A04
:1020D000126888540EE053480068401E5149086059
:1020E000002051494F4A126888544E48006808B988
:1020F0000020A7E7012621E000BF00BF4948006893
:10210000401E4849086000204749464A12688854E2
:102110004448006808B9002094E701260EE0202C0E
:1021200001DB7E2C09DD3F480068401E3D49086008
:1021300000203D493B4A1268885400BF00BF002E72
:1021400083D0002005F0F4F90020384908703348A6
:10215000B0F8790F47281CD131480078C8B92F4909
:1021600091F85B1F01F0040109B1062100E0042190
:1021700008462D4917F05EFF05F09EFB05F07AFB3F
:1021800008220421284809F05BFC0020254908604A
:1021900058E7244800782649087000202149086043
:1021A0002449234A1278891A481E21490A781E496F
:1021B000FEF70BF80120194981F8350F02F04CFEAB
:1021C0001648B0F8790F43281CD01448B0F8790F9E
:1021D000452817D000211848A0F8821E00200F497A
:1021E00081F8430F0846B0F8790F442804D113480A
:1021F0000078134908700FE0084890F8C7031049A9
:10220000087009E000210C48A0F8841E42F2107109
:10221000A0F8821E22F004F9012013E7BC29002057
:10222000B302002080010020AE230020B80200206D
:10223000B5020020D9590020BC390020C30200207B
:10224000AC02002030B502460B460020591E0EE0BD
:10225000C40004EB4004555C04EB2510C40004EBFF
:102260004004555C05F00F0560194C1E21B2002991
:10227000EEDA30BD10B5044611210948FDF7BEFF66
:10228000074854F8011F016061684160FFF77AFC5C
:1022900003480168216040686060641E10BD000052
:1022A00079290020D0F80220C0F80120C288A0F8C7
:1022B0000520017AC17100220272704710B50446F0
:1022C00011210948FDF79AFF074854F8011F0160E2
:1022D00061684160FFF770FC034801682160406855
:1022E0006060641E10BD000079290020072105E010
:1022F0004A1E431C9B5C421C5354491E0029F7DCB8
:10230000002242707047000008210C4A1160012829
:1023100003D10A210A4A11800EE0022803D12821A4
:10232000074A118008E0032803D15021044A118094
:1023300002E00A21024A1180704700001414014093
:102340006E00002000B50346D8B2FFF7DDFF002085
:1023500000BD00002DE9FC5F8346894616461C46F9
:10236000082E00D90826002C3ED02048D0F800A026
:102370004FF00008601E04B229E0A5B205EB08008A
:1023800085B26D1005FB09A0184908603146684602
:1023900029F050FE32466946584606F033FA0746A1
:1023A000002F03DA2CB2601E04B210E037B10FFA2E
:1023B00085F808F101000FFA80F808E00B48006882
:1023C000801B0A490860681C80B2BDE8FC9FA045DC
:1023D000D3DD06480068801B04490860002F03DD38
:1023E00008460068484408600020EEE7FC01002031
:1023F0002DE9F84381460F4690461C46B9F13C0F43
:1024000074D009DCB9F1340F11D0B9F1350F0DD00A
:10241000B9F1360F69D10DE0B9F1440F0CD0B9F123
:10242000450F7DD0B9F1460F7BD160E07EE0002002
:10243000BDE8F8830020FBE73E48B0F8710F00F4D8
:10244000006000284ED1F8B28DF80000022608F096
:102450000100A0B3384890F8F90F18B930208DF872
:10246000010033E02CB1202C03DCE0B28DF8020037
:10247000032631208DF8010014223146684628F0E9
:10248000B1FD002509E005EB45112C4A881804220E
:102490001F2128F0A7FD681CC5B2082D05DA05EB41
:1024A00045102649085C0028EDD100208DF8000079
:1024B00004220121684628F095FD0120B8E7FFE7D6
:1024C00008F0020010B132208DF801002CB1202C50
:1024D00003DCE0B28DF80200032614223146684680
:1024E00028F080FD0120A3E700E01AE01EE03FB1E4
:1024F0003846FDF7A4FEC6B2202E02DD202600E0FD
:1025000000260C48B0F8710F00F4006028B908F0FC
:10251000FF023146384628F065FD012088E7FFE7D5
:1025200004E0494606A031F0BFFC00BF00BF002018
:102530007EE70000BC290020BC390020B5490020FE
:10254000436F6D6D616E642025640A0010B588B01C
:10255000044620461D2C7DD00CDCA0F10F000D2878
:1025600079D2DFE800F0317878302B787878353917
:1025700047433F00502841D006DC332830D03D2867
:1025800009D03F2867D10DE0512878D0522875D066
:102590005328F7D1D0E012F06DFD009082480088FA
:1025A00008B010BD8148B0F8710F00F4006020B988
:1025B00080220021084628F015FDF1E015F0F4F81E
:1025C00028F0F6FBECE0EBE015F0DAF80020E7E7A6
:1025D00000200BF0A5FCE3E001200BF0A1FCDFE004
:1025E0000020DDE70320FFF78FFED9E00220FFF790
:1025F0008BFED5E00120FFF787FED1E001A835F082
:1026000010FA0798B0F5FA6F02DA0020079003E09D
:102610000798A0F5FA6007900A21049890FBF1F260
:1026200001FB12000A22049991FBF2F100EB011068
:102630005F4908700A21069890FBF1F201FB120035
:102640000A22069991FBF2F100EB011058494870FB
:102650000A2101E09CE09EE0079890FBF1F201FB6B
:1026600012000A22079991FBF2F100EB0110504988
:1026700088700598C870012092E700E02EE001A85C
:1026800035F0CFF90A21039890FBF1F201FB12001B
:102690000A22039991FBF2F100EB01104549087001
:1026A0000A21029890FBF1F201FB12000A22029922
:1026B00091FBF2F100EB01103E4948700A210198AC
:1026C00090FBF1F201FB12000A22019991FBF2F159
:1026D00000EB011037498870002061E701A835F050
:1026E000A0F93348807800F00F003149897809114A
:1026F00001EB810100EB410000F5FA6007902C48E6
:10270000407800F00F002A494978091101EB810156
:1027100000EB410006902648007800F00F002449A5
:102720000978091101EB810100EB4100049001A837
:1027300035F0A3F9002033E701A835F072F91D4800
:10274000007800F00F001B490978091101EB8101A5
:1027500000EB410003901748407800F00F00154946
:102760004978091101EB810100EB41000290114809
:10277000807800F00F000F498978091101EB810181
:1027800000EB4100019001A835F077F9002007E740
:1027900002F05AFD04E7214607A031F085FB00BF97
:1027A00000BF0020FCE60000F6020020BC2900204B
:1027B0000000002004000020436F6D6D616E645FB7
:1027C000312025640A0000002DE9F84F8046894633
:1027D00015461E46DDF828A0374800680090CB4615
:1027E000A8F10104B8F1030F63DCBAF1000F02D0C5
:1027F0000020AAF80000F5B909E02EB12E480168C2
:102800000098081AB04202D90020BDE8F88F04EB06
:10281000440000EBC410294901EB0010C06804EB30
:10282000440101EBC411254A02EB01118968884279
:10283000E3D00120E9E7681C88B9002004EB4401DB
:1028400001EBC4111D4A02EB0111886004EB440145
:1028500001EBC41102EB0111C8600120D5E7B9F109
:10286000000F15D104EB440000EBC410134901EB39
:102870000010C06804EB440101EBC4110F4A02EBE5
:1028800001118968884201D00120BEE70020BCE721
:1028900000270AE032465946404630F035FE08B976
:1028A00038B2B2E70BF1010B7F1CAF42F2DB2846D6
:1028B000ABE70020A9E70000DC0000206005002055
:1028C0002DE9F04705460E4617469946B046032DBA
:1028D0000EDC002407E098F80010284630F0B4FF22
:1028E00008F10108641CBC42F5DB0120BDE8F0875B
:1028F0000020FBE770B5002500BF0E48806800F49B
:1029000000544FF47A7035F09BFA0A48806800F45E
:102910000056B44204D16D1C1CB1022D01DD02E051
:102920000025322DE9DB00BF0CB9012070BD00206D
:10293000FCE700000010014030B5024600200FE027
:102940000B7801248440234023B13124431D064DDC
:10295000EC5403E03024431D034DEC54431C18B2E7
:102960000828EDDB30BD0000F359002000BFFEE772
:102970000146CAB20B1243EA0220704710B500208C
:102980000349086003202CF0F3FA012010BD000079
:10299000740100202DE9F04106460C4600271FE097
:1029A00002E0052035F04CFA104800680028F8D005
:1029B00000200E490860402C01DD402500E025463E
:1029C000F0192A46C02132F007F9294601202CF0DF
:1029D000F9FA01202CF024FB601BC4B2781987B2ED
:1029E000002CDDDC0120BDE8F0810000700100203A
:1029F00008B50020009022E19748008800F00F0001
:102A0000964908700846007800287CD194480068F0
:102A1000944908800846008800F0300092490880F8
:102A20009048008800F440508E4908808C4909681D
:102A30004BF6BF7201EA020080F4005080F02000E3
:102A400040F4004141F08001854A116082480088CD
:102A500000F0100090BB1046006848F60F71084067
:102A60001146086012F046FE7D4909684BF6BF72B8
:102A700001EA02007B49098801F4805109B180F420
:102A800080507849098801F4005109B180F4005060
:102A90007549098801F0100109B180F010007249F0
:102AA000098801F0200109B180F0200081B241F4D1
:102AB000004141F080016A4A116008BDFFE76848A3
:102AC000006880B20090BDF8000000F40060B0B370
:102AD00063480068C0F30E0048F68F7108406049F3
:102AE00008602CF08BFF5E4909684BF6BF7201EA63
:102AF00002005C49098801F4805109B180F48050DA
:102B00005849098800E056E001F4005109B180F409
:102B100000505549098801F0100109B180F01000FA
:102B20005149098801F0200109B180F0200081B2EB
:102B300041F4004141F08001494A1160BDE7FFE7DF
:102B4000BDF8000000F40040002878D04448006838
:102B5000C0F30E0048F68F7108404149086017F035
:102B600041FA3F4909684BF6BF7201EA02003D494C
:102B7000098801F4805109B180F4805039490988ED
:102B800001F4005109B180F400503749098801F07F
:102B9000100109B180F010003349098801F02001CB
:102BA00009B180F0200081B241F4004141F0800180
:102BB0002B4A116081E7294800782C4901EB8000FD
:102BC000D0F8000C80B20090BDF8000000F4004086
:102BD000C0B12248007801EB8000D0F8000CC0F3AF
:102BE0000E0048F68F7108401C4909781F4A02EB15
:102BF0008101C1F8000C19490978491E1C4A52F894
:102C000021008047BDF8000000F08000B8B11348F3
:102C10000078164901EB8000D0F8000C48F60F71DF
:102C200008400E490978114A02EB8101C1F8000CF5
:102C30000A490978491E0F4A52F82100804708487E
:102C40004430006880B20449088000F40040002845
:102C50007FF4D2AE00BF30E75C04002038050020CE
:102C6000005C00404C0500204E0500200050004054
:102C700084040020680400202DE9F04190B005464E
:102C8000FE4801680A9141680B91007A8DF8300086
:102C9000FA481B300168079141680891007A8DF865
:102CA0002400F6480A38416E0491816E059190F82F
:102CB0006C008DF81800F248B0F8957FB0F87F8F5F
:102CC0000026A5BBEF4801680D9141680E91007A7E
:102CD0008DF83C00EB480168019141680291007A4F
:102CE0008DF80C00E5480A38016C0191416C0291A5
:102CF00090F848008DF80C00E34901A816F0E8FBB5
:102D0000E248407800F0080028B99DF8040080F0FF
:102D100080008DF80400DA4890F84E0F002805D0A6
:102D20009DF8040080F080008DF80400D1E0FFE7FA
:102D3000022DFBD1D34801680D9141680E91007AB4
:102D40008DF83C00CF480168019141680291007AFA
:102D50008DF80C00C9480A38016C0191416C029150
:102D600090F848008DF80C0000248EE0C4EB0411AC
:102D7000C74800EB4100008841F2883188426DDD90
:102D8000C4EB0411C24800EB4100008842F210710C
:102D9000884214DDC4EB0411BD4800EB41000088FB
:102DA000A0F51C501138B649A1F8950F28F09EFFE8
:102DB000B348B0F8A30FB249A1F87F0F0BE0C4EB02
:102DC0000411B34800EB41000088A0F59850893801
:102DD000AB49A1F87F0F28F047FCAC48407800F0E1
:102DE000400020B9A948407800F08000C0B1A74851
:102DF000407800F0400030B1A4482F3890F822000D
:102E000000F0400060B9A148407800F0800030B187
:102E10009E482F3890F8220000F0800000B932E080
:102E2000C4EB04119A4800EB410050F8151F0D91B6
:102E300041680E91007A8DF83C0006F0020038B12E
:102E40009DF8340080F080008DF8340026F00206F2
:102E50000DA98A480930FDF78BFE13E0C4EB04117D
:102E60008B4800EB4100008840F22F11884208D0C7
:102E7000C4EB0411864800EB41000088B0F5977F51
:102E800000D100E000BF601CC4B28248D0F8AF029D
:102E9000A0423FF76BAF804901A816F019FB7749B4
:102EA000093101A80AF0A8FA7848407800F0080033
:102EB00028B99DF8040080F080008DF80400704867
:102EC00090F84E0F28B19DF8040080F080008DF836
:102ED00004000024C3E1C4EB04116D4800EB410081
:102EE000008841F2883188427DDD26F00106C4EB7E
:102EF0000411674800EB4100008842F210718842DB
:102F000016DD46F00106C4EB0411614800EB4100F8
:102F10000088A0F51C5011385949A1F8950F28F0E8
:102F2000E5FE5748B0F8A30F5549A1F87F0F0BE015
:102F3000C4EB0411564800EB41000088A0F59850FE
:102F400089384F49A1F87F0F28F08EFB042D31D12D
:102F50004A480A9901600B9941609DF8301001724E
:102F60004A48407800F0400038B94848407800F0BE
:102F7000800010B900F012FC41E14448407800F0B4
:102F8000400030B141482F3890F8220000F0400056
:102F900068B93E48407800F080000028ECD03B48FB
:102FA0002F3890F8220000F080000028E4D000F0D4
:102FB000F5FB24E13548407800F0400020B9334863
:102FC000407800F08000D0B13048407800F04000F8
:102FD00030B12E482F3890F8220000F0400070B930
:102FE0002A48407800E0B0E000F0800030B1274887
:102FF0002F3890F8220000F0800000B92DE1012D5B
:1030000060D1C4EB0411224800EB410100F6F2301C
:10301000CA6802600A694260097D017206F0020016
:1030200038B19DF8340080F080008DF8340026F02F
:103030000206C4EB0412164800EB4200C11C0F4804
:103040001B3016F045FAC4EB0412114800EB4200A5
:1030500000F1150109481B302DF020FD074800F153
:103060001B010A6802604A684260097A0172C4EB77
:103070000411074800EB410110E000004648002021
:10308000BC2900206CBA0308A2BA03081D3B00202B
:103090006F3C0020BC390020B4BA030800F6CD30E4
:1030A00051F8032F42664A688266097A80F86C10EC
:1030B000A0F5686090F8E40E80F08001824880F806
:1030C000E41E9CE0C4EB0411804800EB410050F882
:1030D000151F0D9141680E91007A8DF83C0006F0A5
:1030E000020038B19DF8340080F080008DF8340083
:1030F00026F0020601A90DA816F0EAF974490DA8F8
:103100000AF07AF900210DA82AF048F90DA901204A
:10311000FEF7ACFB6F480D9901600E9941609DF878
:103120003C1001721B380D9901600E9941609DF8A9
:103130003C100172C4EB0412644901EB420101F13D
:1031400015000DA9FDF714FD59E0C4EB04115F480B
:1031500000EB41000088B0F5FA7F1FDDC4EB0411DD
:103160005A4800EB41000088B0F5FC7F16DC012DC9
:1031700014D1C4EB0411554800EB41015548CA680D
:1031800002600A694260097D01721B3851490A6870
:1031900002604A684260097A017230E0C4EB0411AF
:1031A0004A4800EB41000088B0F5FC7F0BDDC4EB22
:1031B0000411464800EB41000088B0F5FE7F02DCB8
:1031C000012D00D149E0C4EB0411404800EB41005F
:1031D0000088B0F5977F02D1042D00D03DE03D4836
:1031E0003D490A6802604A684260097A01721B38E8
:1031F00039490A6802604A684260097A01721DB959
:10320000364890F84E0F48B13248253832490A689E
:1032100042664A688266097A80F86C10042D1BD0D9
:103220002F4890F820102D48B0F8CC07814206DADC
:103230002B4890F820002949A1F8810F03E00020D5
:103240002649A1F8810FFDF781FE06F0010008B1C3
:10325000FDF796FFFDF7DAFD00BF601CC4B21A4807
:10326000D0F8AF02A0423FF736AE1C4890F84E0FA0
:1032700038B119480168019141680291007A8DF8CE
:103280000C0014481B380A9901600B9941609DF8A5
:10329000301001721B3007990160089941609DF858
:1032A00024100172253804994166059981669DF8BC
:1032B000181080F86C100948A0F8957FA0F87F8F4F
:1032C00010B0BDE8F0810000BC3900206F3C002048
:1032D000B4BA0308614800206CBA0308BC29002076
:1032E000EE3A00202DE9F043ADF51B7D0446FC4885
:1032F0000168009141680191007A8DF8080000266C
:1033000011E015A901EB86104021FCF777FF06EBD1
:10331000C60003A90144F24802680A6042684A6094
:10332000007A0872761C082EEBDB4FF000080025AF
:103330001CB9EC490020FEF799FAEA481230E94935
:103340000A6802604A684260097A0172E64890F8A9
:10335000EC0800287DD0E44890F83E0F002878D192
:1033600000BF0020E04981F8610F9DE128F018FFBF
:10337000DE48007C00F00800E8B1022D19D1D948E0
:10338000873898990160999941609DF86812017297
:10339000D54890F8610F00EBC000D2491B310144C1
:1033A000D048873802680A6042684A60007A08722A
:1033B00014E0012571E1022D00D16EE1CA4890F8B8
:1033C000610F00EBC000C7491B310144C548873875
:1033D0000A6802604A684260097A0172C1489138FD
:1033E000BF490A68C2614A680262097A80F82410FB
:1033F0000A3002F0A3FE00287DD0BA489138B849BF
:103400000A6842664A688266097A80F86C106430FD
:10341000B649B1F80D20A0F80120C97BC170B348AE
:10342000007C00F0010040BBAE48913800F10A0179
:103430000A68C2614A680262097A80F8241004218D
:10344000A0F5686080F8E41E00F6E46100F69C6078
:1034500000E08DE116F03CF80021A248753829F013
:103460009DFFA04975390120FEF700FA9D49753985
:1034700001F18700FDF77CFB4FE0032C01D0022C0B
:103480004BD19848913800F10A010A68C2614A6834
:103490000262097A80F8241064304078992813D1A8
:1034A00090482D38807899280ED18E482D38C078D4
:1034B000992809D18B486C3889490A6802604A68A2
:1034C0004260097A017228E086486C38A0F11B013D
:1034D0000A6802604A684260097A017284493F3092
:1034E000FDF746FB0421834880F8E41E00F6E46102
:1034F00000F6A56000E015E009F07EFF79486C3821
:1035000029F0E4FF77496C39A1F109002DF0C6FAE2
:103510007449753998A82DF0C1FA0CB1042C01D169
:10352000FDF7D6FF022C7DD17048007C00F0020030
:10353000002878D06B48753802F000FE28B96B4837
:10354000007C00F004000028F3D0B8F1000F01D196
:103550004FF001081B2004F029FC6448007C00F0B7
:10356000100018B361496448FCF78BFE6248FCF711
:1035700066FE0746202238467F1C5F490A545F4A90
:10358000D2F868125C4AD019FCF77BFE5748007CE1
:1035900000F0010028B9534987396846FDF7E8FA79
:1035A00004E050496C396846FDF7E2FA20224021D8
:1035B0005148FCF71CFE4A48016895914168969174
:1035C000007A8DF85C024948B0F80D00ADF855025C
:1035D0004648FCF734FE81464A4644494648FCF7D3
:1035E000F4FD02208DF8540295A9434810300CF0E8
:1035F0006BFB252040494874002088743A4991F8B3
:10360000611F15AA02EB81103B49FCF73AFE3648D0
:1036100090F8610F00EBC00003A9014431489138D4
:10362000C26901E007E037E00A60026A4A6090F888
:103630002400087230E0032C2ED12C48007C00F0CE
:103640000100F8B12948007C00F00200D0B1254803
:10365000873802F073FD20B92448007C00F0040094
:1036600080B120497539214819F018FA1F48007CAB
:1036700000F0100030B12149D1F8680219496C39C5
:1036800019F00CFA1748913815490A68C2614A685E
:103690000262097A80F8241000BF134890F8610F85
:1036A000401C114981F8610F0F4890F8611F90F894
:1036B000EC088142FFF65AAE012D21D109491231A1
:1036C0000020FEF7D3F8074812300168989141684E
:1036D0009991007A8DF8680202254FF0000840E6C3
:1036E0006CBA0308CD480020BC290020F43B002020
:1036F00099BA0308BC390020F359002090A80308A8
:1037000000BF00BF022C33D1684602F017FD18B18C
:1037100069461DA019F0C2F900201E4981F8610F09
:103720001FE01C4991F8611F01EBC10103AA881831
:1037300002F004FD70B1174A92F8612F02EBC20249
:1037400003ABD118134A92F8612F15AB03EB82102B
:1037500019F0A4F90F4890F8610F401C0D4981F849
:10376000610F0C4890F8611F90F8EC088142D8DB9B
:10377000084890F8410F18B907490020FEF776F87D
:103780000DF51B7DBDE8F0834E4554535542544F13
:1037900054414C00BC290020DF48002010B58AB0FD
:1037A0005E48407800F00400002854D15C48016C69
:1037B0000191416C029190F848008DF80C00594934
:1037C00001A815F085FE002442E054482F3890F8F7
:1037D00023000121A1400840C0B304EBC4005049BC
:1037E000AC3108440168079141680891007A8DF86E
:1037F000240001A907A815F06BFE4B4907A809F0A2
:10380000FBFD002107A829F0C9FD07A90120FEF74B
:103810002DF84248407800F0080028B99DF81C00B7
:1038200080F080008DF81C00404890F84E0F28B1C1
:103830009DF81C0080F080008DF81C0004EBC40192
:10384000374AAC32881807A9FDF792F9601CC4B258
:10385000082CBADB5FE032481330016807914168F9
:103860000891007A8DF8240007A802F067FC002870
:1038700051D000244DE029482F3890F82300012131
:10388000A1400840002842D004EBC401244AAC32D5
:10389000881802F053FCD0B304EBC401204AAC32C8
:1038A000881802F04BFC90B304EBC4001C49AC3107
:1038B00008440168049141680591007A8DF8180068
:1038C000194904A815F004FE07A904A809F094FDFD
:1038D00013490A3104A815F0FBFD134904A809F0A7
:1038E0008BFD002104A829F059FD9DF8100000F07F
:1038F000FC008DF8100004A90120FDF7B7FF04EBD0
:10390000C401074AAC32881804A9FDF731F9601CDC
:10391000C4B2082CAFDB0AB010BD00001D3B002074
:103920003C480020A2BA0308B4BA0308BC2900200E
:103930000246914201DD00207047531A03EBD37019
:10394000C0F34700F8E700002DE9FC5F664F6748C9
:10395000007858B94FF0050800206449A1F8050027
:103960001820C8710846B0F808A004E05F48B0F815
:1039700005A04FF00A084FF0000901E008F1010826
:1039800017F808000028F9D108F1010857484078D5
:10399000C0000C2190FBF1F0554908805348C078D5
:1039A00088800C20C88018200881488100240020CD
:1039B00001904E48B0F80500002861D000204880F2
:1039C0004A48B0F8055000264DE0A146785DA8B9F8
:1039D000474A5189474A10192022FCF708FC4448FD
:1039E0004089044400222046641C42490A546D1C4C
:1039F0003F484088401C3E49488034E0785D0128BB
:103A000001D1AD1C2FE000260AE039484089B042C0
:103A100005DD7A5D2046641C36490A54761C6D1C0F
:103A200032480089A84202DD785D0028EDD16D1C86
:103A3000F0B2009005E020222046641C2D490A5473
:103A4000761C2B484089B042F5DC2146641C294A8B
:103A50000098505426484088401C254948800198C9
:103A6000401CC0B2019021480089A842ADDC20482A
:103A700040881F494989491C48431D49C86003E0E3
:103A800000201B494880C86025464FF000091EE011
:103A900009EB0806B85D98B9761C4FF0000B06E0FC
:103AA00000222046641C13490A540BF1010BB85D37
:103AB000584502DDB4F5005FF2D309F1020906E0D2
:103AC000BA5D2046641C0B490A5409F10109D1452D
:103AD00002DAB4F5005FDBD30548C068611B084417
:103AE0000349C860BDE8FC9F00F0036400F0036474
:103AF000A0880020B088002010B5464890F8E10367
:103B000030B1012820D002283AD0032871D153E0E7
:103B1000404890F8300F30B1012808D002280AD070
:103B200003280DD108E03C48FEF7E0FB0AE03A48E4
:103B3000FEF7C4FB06E005E03748FEF79BFB01E01B
:103B4000002010BD00BF56E0324890F8300F30B171
:103B5000012805D002280BD003280DD104E00DE088
:103B60002D48FEF787FB09E02B48FEF783FB00BFDB
:103B70002948FEF797FB01E00020E2E700BF3AE0AA
:103B8000244890F8300F30B1012808D002280AD01C
:103B900003280DD10BE02048FEF790FB00BF1E4824
:103BA000FEF7A4FB06E01C48FEF788FB02E001E0FC
:103BB0000020C6E700BF1EE0164890F8300F30B175
:103BC000012808D0022807D003280DD108E01248A8
:103BD000FEF774FB0AE009E00F48FEF74BFB05E037
:103BE0000D48FEF75FFB01E00020AAE700BF02E0FE
:103BF000FFE70020A5E700BF084890F8C00E00F0DE
:103C0000F801064880F8C01E0020024981F8300FF4
:103C1000012096E7BC2900207C480020BC39002008
:103C200010B5124890F8300F30B1012808D00228A2
:103C30000AD003280DD108E00D48FEF757FB0AE033
:103C40000B48FEF73BFB06E005E00948FEF712FBD8
:103C500001E0002010BD00BF0221064880F8C01E10
:103C60000020024981F8300F0120F3E7BC29002031
:103C70007C480020BC39002070B50446257805F04A
:103C80000F0020B1012806D002280CD107E0204601
:103C9000FEF714FB00BF2046FEF710FB00BF2046D6
:103CA000FEF70CFB00BF00BF257070BD2DE9F0478B
:103CB00006460C4615461F46681E00F00F010120FF
:103CC000884000F0FF080120304908703048007833
:103CD00048B9207800EA080008B1012000E000207F
:103CE000401C2B4908702A480078022802DD012078
:103CF0002749087026480078022808D187F0790003
:103D00002449C871207840EA0800207007E087F055
:103D10006E002049C871207820EA080020701D48F4
:103D2000C079792807D11C48D0F850151948401D92
:103D3000FCF7A7FA06E01848D0F854151548401DBE
:103D4000FCF79FFA154890F8AA1F00231A460D2089
:103D50002BF092F9104901EB86010868FF2200213F
:103D600007F06EFE05F0800068B10B4901EB86019B
:103D70000868FCF764FA814605F00F000123FF2272
:103D8000494608F0E1F9BDE8F0870000B6020020DE
:103D9000B4020020F359002090A80308BC49002079
:103DA00010B500F007F8024890F8330F10BD00007E
:103DB000BC29002010B513F0DFF9002855D011F010
:103DC000BFF90446412C3DDD482C13DA2848A0F801
:103DD000794F09E011F0B4F90446412C04DD482C78
:103DE00002DA2348A0F8794F2148B0F8790F422829
:103DF000F0D03AE0482C0AD11D4890F82C0F00B3BF
:103E000000201B4981F82C0FA1F87D0F2DE01848E8
:103E100090F82C0FA04228D0154880F82C4FA4F120
:103E200048001349A1F87D0F0846B0F87D1FB0F88F
:103E30002D05814219DD00200D49A1F87D0F81F883
:103E40002C0F12E00A4890F8C103A0420DD1084897
:103E500090F8490F462808D0054890F85C0F20B923
:103E60001B20034981F8330F10BD00BFFCE70000A1
:103E7000BC2900202A4A92F8022402F00F010029EE
:103E80004CD097282ED008DC15280FD0812813D0CD
:103E9000822817D0852837D11EE09A2828D0CF282D
:103EA0002CD0E1282CD0F8282ED12BE0012901D1EB
:103EB0005D2000E0402030E0022901D17D2000E0BB
:103EC0007E202AE0012901D17B2004E0062901D1CE
:103ED0005D2000E0602020E0062901D17B2000E089
:103EE00040201AE0062901D1602000E07C2014E087
:103EF000022901D15D2000E05E200EE024200CE0CC
:103F00007E200AE05B2008E07F2805DDB02803DA88
:103F100000F07F02034B985C00BF00BF70470000B9
:103F2000BC2900202EC5030810B50446611CC8B288
:103F3000002211462FF0E8FA10BD0000F0B587B05E
:103F4000044614B9474890F8334FFF2C0CD1002099
:103F5000FEF7F8F9434890F8330FFF287FD100208F
:103F6000404981F8330F7AE03F480078A0420DD1F4
:103F7000002C74D03D480068002870D14FF4FA70CE
:103F80003A4908600120FEF7DDF968E0022544B9EE
:103F900035480078002860D00021084633F068F8E2
:103FA0005BE0AA1CD1B2E8B233F062F83049D1F834
:103FB000F002FCF744F9C7B239461320FFF7B8FC0A
:103FC000401CC6B2EAB22A49D1F8F002314633F0B9
:103FD00036F8002C1CDD642C1ADC04F1D301244AD1
:103FE00002EB81010868FCF72AF9C7B239461320B1
:103FF000FFF79EFC401CC6B2691CCAB204F1D30193
:104000001B4B03EB81010868314633F018F81DE0C3
:10401000152101A8FCF7F2F81549D1F8F002FCF7D8
:104020000EF906461248D0F8F012324601A8FCF705
:10403000CCF8214601A830F078FF00208DF8170059
:10404000681CC2B2092101A832F0F9FF4FF4FA70DE
:10405000064908600120FEF775F90348047007B0AF
:10406000F0BD0000BC29002070020020E400002008
:1040700090A8030870B5FE4890F84F5F90F8C10310
:10408000A84206D14FF4FA61FA48A0F8821E002037
:1040900070BDF748B0F8790F00F47F40B0F5706F4D
:1040A00003D0F34890F8330F08B10120F0E7F2484D
:1040B000007858B10021EF4880F8C01E0822EF496F
:1040C00000F6C1602CF064FC10F06CFF284617F07D
:1040D00061FF08B10120DBE7E748007848B1E84814
:1040E0000078172805D1E7480078022801D1062476
:1040F00012E0E348007817280AD1E2480078042843
:1041000006D10624DF480078401EDE49087003E02F
:1041100028460EF015FC0446D54890F8230F38B118
:104120000E2C05D00020D24981F84F0F0120AFE7B7
:10413000CF4890F8480F18B9CD4890F83A0F58B1C9
:10414000102C09DAD048007B1F2805D00E20C84962
:1041500081F8330F01209BE7C7480078A8B9C4480D
:10416000B0F96F0F00280CDAC149B1F96F0F0028C0
:1041700001DB014600E0414209B2BD4AA2F86F1FCF
:1041800003E00020BA49A1F86F0FE01E0C2871D29D
:10419000DFE810F0A7050C005D05FF0070005C056E
:1041A000A6055D047000700070006004B048B0F8AF
:1041B000790F00F47060D0B1AD48B0F8790F00F419
:1041C0007060B0F5706F0CD011220821042003F04C
:1041D0003DFBAD48807A401EA9490978081AA849D4
:1041E00008704720A249A1F8790F012050E7A048A4
:1041F000B0F8790F442804D09D48B0F8790F4628CC
:1042000039D19B4890F8140F401C994981F8140F3C
:10421000084690F8140F9C490979884203DD012073
:10422000934981F8140F9448007878B19048B0F819
:104230006F0F30B18E48B0F96F0F934909798842FA
:104240000ADD01208A4981F8330F82E3884890F81B
:10425000140F8749A1F86F0F854890F86F0F8449B4
:1042600081F8140F042008F03DFC002003F060F9F1
:1042700001200DE7FEE382480078002834DD814804
:104280000078002830DD8148007800282CDD804847
:10429000007818B101207849087004E001207449C1
:1042A00081F8330FD1E77A480078401C78490870CC
:1042B00001207649087008F00BF808B90020E7E6FD
:1042C0006B4890F8330F70B9724B1A79724B93F8B0
:1042D000AA1F704B987803F0B9FA6E488178FF22D4
:1042E0006E4807F0ADFBB0E76148B0F96F0F662884
:1042F0001ADD5F48B0F96F0F6C2815DA5C48B0F82A
:104300006F0F6B2809D15A48B0F8790F472804D0AD
:104310000120574981F8330F05E05549B1F86F1F67
:1043200088B201F0C5FF90E75148B0F86F0F40B177
:104330004F4890F86F0F401E5149087000205349B4
:1043400008704F48007810B15048007888B94E483E
:1043500000794B490978884202DD4948007818B94C
:1043600001204749087004E045480078401C444952
:1043700008700E204A490870042008F0B3FB0020A2
:1043800042490870474908803E4908704049087012
:104390005BE73748D0F8710F20F480303449C1F81A
:1043A000710F0846B0F8790F442804D00846B0F8D9
:1043B000790F462836D130480078A8B12C48B0F89B
:1043C0006F0F30B12A48B0F96F0F2F490979884231
:1043D00004DD0120264981F8330F36E7244890F8A0
:1043E0006F0F234981F8140F2148B0F8790F442842
:1043F00008D11F4991F8141F01F2362188B222F02A
:1044000057FC07E01A4991F8141F01F23B2188B2CA
:1044100022F0B2FC0120164981F8140FFF2008F0A9
:1044200061FB12E71248B0F8790F47287ED1164891
:10443000007BE0B91448807A134908800846C07AA6
:104440000871002048710E48C1F806000120087369
:1044500015481649086003F01EFA312008F042FBA7
:104460000E200F490870002008490870EDE61FE093
:10447000BC290020BC390020B5020020D7590020FB
:10448000B3020020B102002070590020B2020020C7
:10449000B4020020AC240020BC490020F3590020C5
:1044A000B6020020AA020020E5CA0008640200202B
:1044B000FE48007B1F2815D0FD48007890B9FB48C6
:1044C000D0F806000178F948807A401E0844F9497E
:1044D00008700020F8490880F8490870F849087009
:1044E000F8490870F348007800281FD0F348007896
:1044F00001287BD1F3480078002877D0EC48007879
:1045000010B901F0B9FDA0E60021EF4880F8C01E07
:10451000E84800781F286ED1EC4890F8810888B3ED
:104520000020EA49A1F8950F084600E0BCE190F8A8
:104530008108E4490978B1EB400F58DC00221146AC
:10454000E3A007F07DFAE549DE4A1278891A481E91
:104550000122072107F074FAE14901200FF05CFA0B
:10456000DA49A1F8950F0846B0F8950F98B90021DF
:10457000084602F031F930B9D44890F8CF03D94950
:104580000870FEE337E0D64900200FF045FACF4926
:10459000A1F8950F1CE0CD48B0F8790F442817D04A
:1045A000CA48B0F87C0800B2C849A1F86F0F0021D2
:1045B000012002F011F9C548B0F87C08C349B1F9EF
:1045C0006F1F884204DAC14890F8CF03C5490870CC
:1045D000BE48B0F8950F00B2BC49A1F86F0F00209B
:1045E00003F00AF8012003F007F804E01FE00020C0
:1045F000B649A1F86F0FB548B0F86F0F38B1B3489E
:10460000B0F86F0F401E00B2AB49088004E00120F3
:10461000AE4981F8330FB4E30020A9490870A949D5
:104620000870AA4981F8330F0120A14908700025BC
:10463000A0480078482874D010DC412830D006DC2F
:10464000192838D0252820D03D281DD1B7E0422890
:1046500068D0462868D04728F7D173E04938092840
:1046600012D2DFE800F08BC00599B41111BA9D0099
:104670009D49D1F82C01002130F0D6FC18B1002161
:104680009248A0F87C180325F9E0002014F0E2FD20
:10469000052008F083FC002002F04AFF0120F7E427
:1046A0009149D1F8AC08012130F0BEFC08B102F00C
:1046B0002DFE0325E3E001238CA219461B2013F0F5
:1046C0003DFD0446012C06D1804890F805080A28D3
:1046D00004DD6C2402E0022C00D16B246C2C01D090
:1046E0006B2C1CD1804901EB84010868012130F05A
:1046F0009BFCA0B16C2C05D1802280498048FBF73F
:1047000064FD04E080227F497D48FBF75EFD6F4831
:10471000D0F8710F20F400706C49C1F8710F0325B7
:10472000ADE01DE04FE0FFE76F49D1F81801744993
:10473000EA312AF063FE18B92420644981F8330F66
:1047400003259CE06849D1F81C016D49DC312AF051
:1047500055FE18B924205D4981F8330F03258EE0FA
:104760006149D1F820016649E3312AF047FE18B9C2
:104770002420564981F8330F032580E05A49D1F8A7
:1047800024015F49F1312AF039FE18B924204F493C
:1047900081F8330F032572E018F076FE03256EE0F2
:1047A0001BF042FF44201CF065FE46201CF062FE18
:1047B00019F0B2FC062026F005FC03255FE019F095
:1047C0009DFA03255BE009F06FFD032557E04FF4E8
:1047D000805010F0FFFD032551E04FF4005010F021
:1047E000F9FD03254BE000BF012347A200214A2029
:1047F00013F0A4FC0446002C3BDD0A2C39DC04F148
:10480000510084B2A4F152000A2831D2DFE800F04E
:1048100005090E12161A1E22262B022010F0DAFDB0
:1048200026E04FF4804010F0D5FD21E0012010F08B
:10483000D1FD1DE0082010F0CDFD19E0042010F09E
:10484000C9FD15E0102010F0C5FD11E0202010F08A
:10485000C1FD0DE0402010F0BDFD09E04FF4806087
:1048600010F0B8FD04E04FF4006010F0B3FD00BF9D
:1048700000BF4FF6FE708442B6D1032500BF00BFD3
:1048800095B1032D4BD10948807A401E094909781A
:10489000081A084908700020054908700649088070
:1048A00006490870064935E044E0000070590020D0
:1048B000B2020020B3020020AA020020B1020020B0
:1048C000B4020020B5020020BC390020BC29002021
:1048D000504C5520434F444500000000D95900205A
:1048E0007D480020AC02002090A803084B455942A7
:1048F0004F4152442054595045000000D0A50308B0
:10490000DD2D00201D96030853454C454354204996
:1049100054454D00087002F00BFE012007E4002012
:10492000F64981F8230F084690F8CF03F449087040
:10493000012010E4F348F4490860F448007850BBC3
:10494000F348007828B1ED4890F8710F00F00800A6
:1049500000B116E2EF480078401CEE4908700020D4
:10496000ED490870EB48007802281FDD012029F08E
:10497000F9FDEA4890F8AA0F072806D1012029F08E
:10498000FFFD0621002010F00BFCE44890F8AA0F70
:10499000E349C8700AE0E048007810B9DC480078C4
:1049A00020B90120D54981F8330FEAE10120DD4922
:1049B000087007F08DFC08B9002017E4CF4890F884
:1049C000330FB0BBD348007800283FDDD0480078D3
:1049D00017283BD0CF48007801280BDDD04B1A793F
:1049E000D978987802F032FFCD48C2788178CE48E5
:1049F00007F026F8C5480078D8B1C6480078401CB2
:104A0000C4490870012029F0ADFDC44890F8AA0FF0
:104A1000072806D1012029F0B3FD0621002010F05F
:104A2000BFFB002002F084FD07F052FC10B900200B
:104A30001FE40BE0B148B0F8710F00F4807028B9A2
:104A4000B7488178FF22B84806F0FAFF99E125F0CF
:104A500093FF96E1A948D0F8710FB4490840A749DF
:104A6000C1F8710F0846B0F8790F4FF2450188423E
:104A700021D100E06EE14520A049A1F8790F002086
:104A8000A3490870AA4890F84F0100F00801A8480F
:104A900080F84F11002002F04BFD32F0C1F90820E0
:104AA00002F0AAFD9549D1F8A50F0822002106F0D1
:104AB000C7FF4520F3E59148B0F8790F00F4706026
:104AC00090B143208D49A1F8790F002002F030FD0C
:104AD000082002F091FD8949D1F8A50F0822002194
:104AE00006F0AEFF4320DAE592488749086089481E
:104AF000007868BB8B48007850BB8048B0F8790FCD
:104B0000442804D07D48B0F8790F462809D1002008
:104B10007F490870FF2007F0E5FF0E2086490870E6
:104B20002FE108F0F1F90020744981F8230F4720A4
:104B3000A1F8790F81480069C1F8A50FD1F8A50F38
:104B40000822002106F07CFF04207B49087018E150
:104B50006F480078C8B36F480078012836DD6C488C
:104B60000078332832DA6A48007838282EDD684821
:104B70000078C0282ADA66480078C32826DD644811
:104B80000078232822DA6248007824281EDD604855
:104B9000007815281AD05E480078162816D05C4890
:104BA0000078132812D00020654908805949087000
:104BB0005949087055490870504890F8C7034F4943
:104BC00081F84F0FFFF756FA3EE0FFE7002032F082
:104BD00095FC5C48007BD0B14D480078B8B95A4884
:104BE000008858490880584880780871002048712A
:104BF0004748C1F8060000200873534800798872BE
:104C000051488079C87201204149087007E04D4839
:104C1000807A401E3E490978081A3D4908700020F4
:104C2000364981F8330F39490870394909783031EC
:104C3000C8B207F057FF00203A4908704049088081
:104C40003449087034490870012028E500BF2B481A
:104C5000D0F8710F00F48030F0BB2848B0F8790F1D
:104C600047283CD12F480078B0B338480078022854
:104C700035DD36480078401E26490870274890F8F0
:104C8000AA0F002810DD254991F8AA0F02F0B4FC04
:104C9000224890F8AA0F401EC1B2204880F8AA1FEF
:104CA00090F8AA0F1E49C8701C4991F8AA0F02F08B
:104CB000A3FC0020154908701749087007F008FB8D
:104CC00048B10E4890F8330F28B915488178FF2273
:104CD000154806F0B5FE00E001E00120DFE400BF6A
:104CE00000BF0648D0F8710F00F4803028B1E0B260
:104CF0000549096888470120D1E429E0BC29002042
:104D0000AC020020E1CA000864020020B5020020C5
:104D1000B3020020B1020020B4020020BC490020F0
:104D2000AC240020B2020020F3590020C7FFFEFF90
:104D300065390020E5CA0008B602002090A80308E3
:104D4000AA0200207059002088BD0308B00200208C
:104D50000020A4E41348B0F8820E40F6B731884230
:104D600008DD1048B0F8820E40F61C41884201DA96
:104D7000002094E40C48407808B101208FE4002022
:104D80008DE400BF09480078022808D0084890F850
:104D9000710F00F0100010B9002002F0C9FB0120D3
:104DA0007DE40000BC3900203E480020B102002014
:104DB000BC29002010B52548B0F8820EB0F57A7FE6
:104DC00042DA2248B0F8820E642190FBF1F201FB36
:104DD0001200A8BB1E48B0F86F0F20B11C48B0F9F4
:104DE0006F0F632804DD0120194981F8330F10BDCE
:104DF0001648B0F8820E1649B1F86F1F084481B208
:104E00001248A0F8821E124890F8520FC8B10F48FD
:104E100090F8E40E00F003000D4981F8300F01F521
:104E2000F45001464A6E02648A6E426491F86C1036
:104E300080F848100020064981F8520F10F0B2F8AF
:104E400002E00020034908700020D0E7BC390020B0
:104E5000BC290020B502002010B57A4890F8F8036C
:104E600000F0080000287DD0774800780D2803D096
:104E7000754800780C2875D1734800780C2803D148
:104E80003020724981F84200704890F84310303960
:104E900090F8420001EB0010C4B2262C14D008DCBC
:104EA000022C0FD0202C0ED0212C16D0252C36D140
:104EB00028E0272C27D0282C07D0292C24D0372CC9
:104EC0002DD10FE000BF00BF00BF5E4890F8FF0388
:104ED00000F0800000B923E000BF0320594981F8A9
:104EE000350F1DE0574890F8FF0300F0100040B167
:104EF000564890F84400392803D10220514981F8DE
:104F0000350F0DE000BF00BF4E4890F8FF0300F0E2
:104F1000400018B104204B4981F8350F00E000BF74
:104F200000BF484890F8350F01281BDD4848494923
:104F30000A6802644A684264097A80F84810434863
:104F400090F84D10303990F84C0001EB0010C1B2D0
:104F50003F48403041703D4890F84B10303990F850
:104F60004A0000E06CE001EB0010C1B2384840306C
:104F70008170364890F849003038C1B2344840302A
:104F8000C170304890F8350F042813D130480146DD
:104F90000A6C42664A6C826691F8481080F86C1080
:104FA0000321A0F5686080F8E41E0120254981F8FE
:104FB000520F11E0234890F8430F68B924485B3042
:104FC00023490A6C02604A6C426091F848100172F1
:104FD00001201C4981F8430F1A4890F8350F022828
:104FE00003D107201849087011E02020174981F8E3
:104FF000430081F84200134890F8350F042803D08D
:105000000020104981F8520F05200F490870002434
:105010000DE0C4F148000D49085CC4F14E010B4A93
:1050200050542020C4F148015054601CC4B2072CD5
:10503000EFDB082205494E31054841302BF0A8FC32
:1050400010BD0000BC290020B502002089590020B5
:105050003C4800206CBA030870B512F08DF808B90E
:10506000002070BD10F06CF804466E4981F84F0FB7
:1050700001F5005090F8A80F00F02000002876D02D
:1050800020460DF05DFC0C2829D005DC48B1042831
:105090001BD006286CD11CE00E286BD00F28F9D14C
:1050A00014E06148007878B1202060498870487029
:1050B00008700020C870082203215C4806F0C0FC7C
:1050C000002059490870CCE700BF00BF04F580708C
:1050D000C7E7032002F072F804F58070C1E70020F2
:1050E000534908705348B0F8A80F20F040015148C8
:1050F000A0F8A81F50480078401C4F490870084687
:10510000007840B101280CD0022810D0032814D018
:105110000020087000BF08220021612005F086FBF6
:1051200022E008220021412005F080FB1CE008223B
:1051300000212A2005F07AFB16E020203B498870E8
:10514000487008700020C87008220321374806F014
:1051500077FC08220021402005F068FB002032493E
:1051600008703249087000BF00BF002079E73DE0B9
:105170002DE0FFE72C48007820B92A4890F8CF03AB
:105180002E4908702848007870B12020274988707F
:10519000487008700020C87008220321234806F0D8
:1051A0004FFC0020204908702248B0F8A80F20F0DA
:1051B00020012048A0F8A81F1522214900F693706D
:1051C000FBF703F8082032F00FFA002049E71848EF
:1051D000007858B918480078032803D1204611F008
:1051E00085FD3EE720460DF0CFFE3AE7402C16DA6B
:1051F000144800EB44000588302D01DB392D01DD1A
:105200002E2D01D128462CE72F2D08D1054890F8E6
:10521000710F00F0100010B943F2300021E744F4A0
:1052200080701EE7BC290020E4010020E00100207E
:10523000E8010020BC490020E5010020AC0200206C
:1052400064250020DD2D002010B5084800780849AD
:105250000978884201D1002010BD32F0B5F912F072
:10526000A3FA044802490978405CF5E7650000208C
:10527000660000205405002010B52F488168A0F674
:105280007D70D0F87D0F81420AD32B488168A0F64B
:105290007D70D0F87D0F081A274949690C1A05E07E
:1052A0002648D0F87D0F24498968441AB4F5806FE8
:1052B0002AD22148007E022826DA02F0FDFA20498F
:1052C000D1F840030822092106F0BAFB0320FDF7BC
:1052D00039F808E01B4991F8F513491EC8B2FEF7EA
:1052E00023FE00B10AE011F047FF0028F2D00FF0D2
:1052F00027FF144991F8C1138842EBD100BF0E4833
:10530000007E401C0C4908760B4881680B48D0F899
:105310007D0F814209D3084881680848D0F87D0F85
:10532000081A05494969081A10BD0448D0F87D0FCC
:1053300001498968401AF7E739490020BC39002043
:1053400090A80308BC290020FEB506460C460CB9FF
:105350000020FEBD18480168009141680191007A63
:105360008DF808000A2194FBF1F201FB124000EBDA
:10537000D071C1F347050A2094FBF0F0C1B20DF1E2
:1053800001004155204604EBD0714910A4EB4101C6
:1053900039B10DF10100405D0007010E0DF1010072
:1053A00041556946304603F0C7F9012801DA00206B
:1053B000CFE70120CDE700006CBA030870B58AB0D2
:1053C0000446AD4890F8F80300F00400002879D0B6
:1053D000A94890F8850830B9A74890F8710F00F0F7
:1053E00006000028F3D00025A34890F8710F00F0C4
:1053F0000200002867D0A148016807914168089120
:10540000007A8DF824009C4890F884289C490DF17E
:105410001D00FAF7DAFE07A800F090FE08B90AB0FE
:1054200070BD012C13D1974894490A6802604A68FC
:105430004260097A0172904890F8276F03208E49E4
:1054400081F8270F2AF084FE8B4880F8276F8D485B
:105450000168049141680591007A8DF818000020D8
:105460008DF8100085480168019141680291007A29
:105470008DF80C0007E007A904A82BF00FFB824968
:1054800001A8FBF775FB07A904A803F055F900284C
:10549000F1DA7E4890F8C90E8DF8040079491B3185
:1054A0007848FBF765FB794890F8C96E002180F8D1
:1054B000C91E72480168049141680591007A8DF80F
:1054C000180009E0D6E03FE007A96E482BF0E6FAA5
:1054D0006D4904A8FBF74CFB07A96A4803F02CF9B7
:1054E0000028F1DA8DF8106001A904A82BF0D6FA93
:1054F000002104A827F052FF04A800F01FFE002896
:105500005AD0604824385D490A6802604A6842609F
:10551000097A0172584890F8842859490F3901F6E0
:10552000B340FAF752FE04A95648243813F0D0FFCE
:10553000564890F8A50E80F08001544880F8A51ECA
:10554000022C39D0052537E04B4890F8710F00F058
:10555000040088B34B48243848490A6802604A6806
:105560004260097A0172444890F8842844490F390E
:1055700001F6B340FAF729FE0421444880F8A51E3D
:1055800000F6DB6100F6A56013F0A2FF3D491B3178
:10559000A1F13F0013F09CFF00213A48243827F086
:1055A000FDFE3A4890F8A50E80F08001374880F85B
:1055B000A51E022C00D01125002D5BD031492439C5
:1055C000A1F1B20017F06AFA00202B4981F8310FDF
:1055D00010E00DF043F926F089F82948A138407809
:1055E000A84200D10DE0244890F8310F401C224918
:1055F00081F8310F204890F8311F90F862078142FE
:10560000E7DB00BF1C48D0F8710F40F004001A49D6
:10561000C1F8710F1B483F38016807914168089134
:10562000007A8DF8240017483F3800F11B010A6802
:1056300002604A684260097A01720F4890F8842833
:105640000F490F3901F6CE40FAF7BFFDFBF716FC04
:105650000C483F3807990160089941609DF8241073
:1056600001721CB100F11B01FBF782FA0120024913
:1056700081F8690F00BFD2E6BC2900206CBA03088C
:10568000BE3B00208548002075BA0308BC390020C5
:105690002DE9F0410026FE4890F84F5F90F84F1F2B
:1056A00090F8D003814204D111F060FD0120BDE8E3
:1056B000F081F74890F8330F08B10020F7E728464B
:1056C0000DF03EF90446102C01DB0020EFE7022C20
:1056D00003D1F0480078002802DD0020EE49087070
:1056E000EB4890F8230F40B30E2C1ED131F098FBFD
:1056F0000020E74981F8230F0021E848A0F8821E26
:10570000002001F015FF0020E5490870E548807A87
:10571000401EE5490978081AE349087009783031D4
:10572000C8B207F0DFF90120C1E7062C05D000213F
:10573000DA48A0F8821E0120B9E70B2C30D006DC35
:10574000012C7DD0022C7CD0062C7BD1F8E00C2CD7
:1057500079D00D2C78D00E2CF7D1CD48B0F8790F38
:1057600000F47060D0B1CA48B0F8790F00F47060EE
:10577000B0F5706F12D011220821042002F066F8F3
:10578000C848807A401EC8490978081AC649087076
:105790004720BF49A1F8790F012088E7002086E75C
:1057A000BB48B0F8790F432804D0B948B0F8790F56
:1057B00045284FD1B64890F8250F80F08000B449B5
:1057C00081F8250F20221521B848FAF710FDB849B5
:1057D000D1F88000FAF733FD0746B548D0F88010BD
:1057E0003A46B248FAF7F1FCA94890F8250F00F0C4
:1057F000800098B1A64890F8200F411CAB48C01D0E
:105800002FF078FB2D20A9490872A14890F8200FAD
:105810004100A64809302FF088FB0EE00121A34883
:10582000C01D2FF067FB2D20A0490872984890F802
:10583000201F9E4809302FF078FB0822092104E040
:1058400048E02CE09AE307E08CE1984806F0F8F88D
:1058500001202CE700202AE78D48B0F8790F47286F
:1058600006D08B48B0F8790F4FF24501884214D129
:10587000874890F8710F00F0100070B18D4890F8D3
:10588000A80F00F0200018B1032001F097FC02E0FF
:10589000022001F093FC012009E7002007E77C4883
:1058A000B0F8790F432813D1794890F8F603401CDB
:1058B00079490978084378490870012001F080F996
:1058C0007548007880F08000734908700120EEE68A
:1058D0000020ECE66E4890F8FA0300F0200068B370
:1058E0006C48007850BB6A48B0F8710F00F4006053
:1058F00088B901F0BFFF6E49D1F8E40708220421FE
:1059000006F09EF86248D0F8710F40F400606049DC
:10591000C1F8710F10E001F0ADFF6549D1F8E8075B
:105920000822042106F08CF85948D0F8710F20F4B1
:1059300000605749C1F8710F0120B8E60020B6E6B3
:105940005948007858B15248B0F8790F00F47060A7
:1059500028B94F4890F8230F08B90020A7E64C4813
:10596000B0F8790F47287CD14948B0F96F0FA0F201
:105970009310F0B1932802D0942873D10CE04448DE
:1059800090F8F503401E4C49088026F039FB0020B2
:1059900001F0CEFD01208AE63D4890F8F503401E57
:1059A0004549088026F02CFB002001F0C1FD0120B4
:1059B0007DE631F035FA0022114640A006F040F8AD
:1059C00003223C49833939480FF03EFC0020374917
:1059D000887100220521354806F032F800220C219A
:1059E00038A006F02DF8032232497F392F480FF0F6
:1059F0002BFC00202D498871002211212B4806F034
:105A00001FF80122002131A006F01AF803222949CB
:105A1000773926480FF018FC0020244988710122AC
:105A20000521224806F00CF801220C2129A006F0DD
:105A300007F803221F4973391C480FF005FC0020AA
:105A40001A49887101221121184805F0F9FF022234
:105A5000002122A005F0F4FF032216497B391348E8
:105A600001E07DE073E00FF0EFFB00200F4988714B
:105A7000022205210D4805F0E3FF02220C2119A0A6
:105A800005F0DEFF03220B496F3908482EE00000C5
:105A9000BC290020B5020020B8020020BC3900203B
:105AA000B102002070590020B3020020335A0020B8
:105AB00090A80308BC490020A80200204865616442
:105AC0003D000000526561643D00000046726F6D4C
:105AD0003D000000456E64203D0000004E65787476
